:020000040800F2
:10000000180A002061020008C57C0008EB370008D0
:10001000C17C0008E7070008719F0008000000008D
:10002000000000000000000000000000B98100088E
:100030003D0A000800000000B18000087582000839
:100040007B0200087B0200087B0200087B0200089C
:100050007B0200087B0200087B0200087B0200088C
:100060007B0200087B0200087B0200087B0200087C
:100070007B0200087B0200087B0200087B0200086C
:100080007B0200087B0200087B0200087B0200085C
:100090007B0200087B0200087B0200087B0200084C
:1000A0007B0200087B0200087B0200087B0200083C
:1000B0007B0200087B0200087B0200087B0200082C
:1000C0007B0200087B0200087B0200087B0200081C
:1000D0007B020008D99E0008299F00087B020008C7
:1000E0007B0200087B0200087B0200087B020008FC
:1000F0007B0200087B0200087B0200087B020008EC
:100100007B0200087B0200087B0200087B020008DB
:100110007B0200087B0200087B0200087B020008CB
:100120007B0200087B0200087B0200087B020008BB
:100130007B0200087B0200087B0200087B020008AB
:100140007B0200087B0200087B0200087B0200089B
:100150007B0200087B0200087B0200087B0200088B
:100160007B0200087B0200087B0200087B0200087B
:100170007B0200087B0200087B02000800000000F0
:100180007B0200087B0200087B0200087B0200085B
:100190007B0200087B0200087B0200087B0200084B
:1001A0007B0200087B0200087B02000800F002F8D6
:1001B00000F047F80AA090E8000C82448344AAF1BA
:1001C0000107DA4501D100F03CF8AFF2090EBAE8B8
:1001D0000F0013F0010F18BFFB1A43F0010318477B
:1001E0006CF500008CF50000103A24BF78C878C187
:1001F000FAD8520724BF30C830C144BF04680C602D
:10020000704700000023002400250026103A28BF74
:1002100078C1FBD8520728BF30C148BF0B60704778
:10022000642900F0A980782900F0E280732900F0A9
:10023000F781002070471FB50AF0A5FD1FBD10B55E
:1002400010BD00F027FA1146FFF7F5FF0AF0A8F8F5
:1002500000F045FA03B4FFF7F2FF03BC09F0C7FE54
:100260000948804709480047FEE7FEE7FEE7FEE74A
:10027000FEE7FEE7FEE7FEE7FEE7FEE70448054986
:10028000054A064B704700007D820008AD0100085A
:1002900018040020180A0020180600201806002064
:1002A000704700000FB4044910B503AA029800F08B
:1002B000BBF910BC5DF814FB1C0000202DE9F041D7
:1002C0000E460446002020622046E168884730B38D
:1002D000252805D0D4E901219047206A401CF2E787
:1002E000E168204600278847050018D0A5F14100A5
:1002F000192802D820354FF4006732462946204697
:100300002760FFF78DFF40B1012804D0F61D26F0CD
:1003100007060836D8E7361DD6E72846DAE7206A0A
:10032000BDE8F08170B50C460546012A05D0287855
:10033000800600D5EA69002302E0012305E05B1C8A
:10034000934202D2E05C0028F9D1A869E618C01AED
:10035000A861286A184428622846AFF3008004E0A8
:10036000D5E9012114F8010B9047B442F8D328468F
:10037000AFF3008070BD00002DE9F0410646002477
:1003800010687529314616A510D0AFF300800028FB
:1003900002DA404213A507E031688A0701D512A5A9
:1003A00002E0490704D511A5012401E0AFF3008064
:1003B00000210A2206F1240709E0B0FBF2FCB0FBA1
:1003C000F2F302FB1C00303078541846491C002818
:1003D000F3D123462A463046BDE8F04100F0B5B8D7
:1003E000000000002D0000002B0000002000000095
:1003F00070B504460D4621461068AFF30080218891
:10040000090502D50F4A7A4402E00E4A7A440E32B8
:10041000002104F1240305E000F00F060009965DB9
:100420005E54491C0028F7D120780023000704D52A
:10043000702D02D009B1022311322046BDE8704070
:1004400000F083B89CF2000010B5203AC0F00B8099
:10045000B1E81850203AA0E81850B1E81850A0E8C8
:100460001850BFF4F5AF5FEA027C24BFB1E8185022
:10047000A0E8185044BF18C918C0BDE810405FEA92
:10048000827C24BF51F8043B40F8043B08BF70470E
:10049000D20728BF31F8023B48BF11F8012B28BF13
:1004A00020F8023B48BF00F8012B70474FF0013C99
:1004B00050F8042B51F8043B9A4221D1A2EB0C03D3
:1004C000934313EACC1317D150F8042B51F8043B93
:1004D0009A4215D1A2EB0C03934313EACC130BD130
:1004E00050F8042B51F8043B9A4209D1A2EB0C03BB
:1004F000934313EACC13DBD04FF00000704700BFEA
:10050000D01A01BAB1FA81F101F0180122FA01F012
:10051000CB40C1F12001DBB2C0B2C01A2CFA01F30A
:10052000D11A914311EAC311E6D170477047704761
:100530007047704710B500F089F8006810BD10B51D
:10054000044600F083F8046010BD2DE9F0470D4625
:1005500099469246044600F124080168880604D5AD
:10056000E06921F01001216000E00120A84201DDD6
:10057000471B00E00027A1697A1902EB0900081A5D
:10058000A0612078C00602D42046AFF30080002688
:1005900008E0D4E901211AF806009047206A401CBF
:1005A000761C20624E45F4DB2078C0060AD5204632
:1005B000AFF3008006E0D4E9012130209047206AA3
:1005C000401C2062381EA7F10107F4DC07E0D4E9E3
:1005D000012118F805009047206A401C2062281E5F
:1005E000A5F10105F3DC2046AFF30080207800067A
:1005F00002D50220BDE8F0870120FBE710B5436972
:1006000013B1AFF3008001E0FFF78CFE012010BDB5
:10061000127800F124010A7000224A700122EDE7ED
:1006200011684FF0FF32E9E7074B70B50D467B4488
:1006300000F015F80446284600F024F810B14FF0F9
:10064000FF3070BD204670BD7F9B000000487047A2
:10065000B803002001694A1C02610878704700B5A0
:100660008FB0CDE901310021059105497944CDE9EB
:10067000031011466846FFF721FE0FB000BD0000D1
:10068000E5FFFFFF007B00F08000704700487047E7
:10069000B80300207546FFF7F9FFAE46050069462E
:1006A000534620F00700854618B020B5FFF7E6FD59
:1006B000BDE820404FF000064FF000074FF0000863
:1006C0004FF0000B21F00701AC46ACE8C009ACE8E4
:1006D000C009ACE8C009ACE8C0098D46704710B548
:1006E0000446AFF300802046BDE81040FFF7B2BDDE
:1006F00010B503F0A5F810BD70B506460C461546BA
:1007000008E03046721C96B200F007F804F8010BBE
:10071000681E85B2002DF4D170BD70B50446002668
:1007200003F04EF92546E11704EB11610912A022EE
:1007300002EB4101C8B203F00FF903F08DF9E117A4
:1007400004EB11610912A4EB0121C8B203F004F912
:1007500003F082F903F034F9A12003F0FDF803F06F
:100760007BF9002003F0C2F8064603F04FF930464B
:1007700070BD70B505460C46164606E02178284641
:1007800000F009F8681C85B2641C301EA6F1010156
:100790008EB2F3D170BD70B504460E4603F010F969
:1007A0002546E11704EB11610912A02202EB410179
:1007B000C8B203F0D1F803F04FF9E11704EB11616F
:1007C0000912A4EB0121C8B203F0C6F803F044F902
:1007D000304603F0C1F803F03FF903F017F90A209F
:1007E00009F0B6FC70BD00BFFEE710B5022009F0AD
:1007F000BBFC10BD10B500200A490860FFF7F5FFEB
:1008000001200949C1F89802FFF7EFFF00200749CE
:100810000860FFF7EAFF01200549C1F88C02FFF7E5
:10082000E4FF10BD8C024442008043429882434260
:100830000000444200B587B000BF002001901B4873
:10084000006840F08000194908600846006800F020
:100850008000019000BF00BF00BF0020019008464B
:10086000006840F4807008600846006800F48070FA
:10087000019000BF00BF4020029011200390012092
:1008800004900320059002A9094801F04BFA0820C2
:10089000029002A9074801F045FA012006490860C4
:1008A0000649C1F8980207B000BD00003038024088
:1008B000001C0240002002408C024442008043425F
:1008C00010B5012007490860FFF78FFF0120064996
:1008D000C1F89802FFF789FF002004490860FFF77C
:1008E00084FF10BD8C024442008043429882434200
:1008F00070B505460024002613E06006040E0120B2
:100900000D490860FFF771FF0C48D0F80C0208B1E0
:10091000601CC4B2002008490860FFF766FF701C25
:10092000C6B2082EE9DB15B9FFF7CAFF01E0FFF7F1
:1009300061FF204670BD000098824342000044429F
:1009400070B50446002511E0E0090B490860FFF787
:100950004CFF01200949C1F89802FFF746FF00202B
:10096000074908606006040E681CC5B2082DEBDB61
:1009700001200149086070BD8C024442008043425E
:100980009882434210B50120094908600949C1F81D
:100990009802FFF72AFF002005490860FFF725FFAE
:1009A00000200449C1F89802FFF71FFF10BD0000A6
:1009B0008C0244420080434210B500200749086081
:1009C000FFF713FF01200649C1F89802FFF70DFF5A
:1009D000012002490860FFF708FF10BD8C02444265
:1009E0000080434270B500240025012010490860B2
:1009F000FFF7FBFE01200F49C1F89802FFF7F5FE53
:100A000009E0601CC4B2FA2C03DDFFF7D5FF012515
:100A100006E0FFF7EAFE0648803800680028F0D1BB
:100A200000BF002004490860FFF7DFFE284670BDC4
:100A30008C02444200804342988243427047000047
:100A400070B504461D460023B5F5804F13D154F808
:100A500022300C480340D1E9000640EA06108E68B7
:100A600040EA06208E8940EA06408E6930430343FF
:100A700044F8223003E06FF0704044F82200002078
:100A800070BD00000000F0CF10B5024600230868DA
:100A900052F820301B480340D1E901042043CC68C0
:100AA00020430C6920434C6920438C692043CC6966
:100AB00020430C6A20434C6A20438C6A2043CC6A52
:100AC0002043CC6B20430C6B20434C6B20430343EF
:100AD0008868082801D143F04003086842F82030B4
:100AE000486BB0F5801F0AD1086840B14FF48070A0
:100AF00008614C6B08692043146820431060002093
:100B000010BD00008000E0FF30B50346144600220F
:100B1000601C53F8202002F04042D1E9000540EA71
:100B200005108D6840EA05208D8940EA0545088A50
:100B3000401E45EA0055087D801E45EA00608D692B
:100B400028430243601C43F82020186800F48010FA
:100B500038B1586820F47002088A401E42EA0052F8
:100B60005A60002030BD30B50246002300240868DA
:100B7000012816D013686FF30E03D1E9010528434D
:100B8000CD6828430D6928434D6928438D69284362
:100B9000CD6928430D6A28434D6A284303431360F7
:100BA00019E013686FF30E03D1E9070528434D6A76
:100BB0002843034354686FF30E04D1E90105284329
:100BC000CD6828430D6928434D6928438D69284322
:100BD000044313605460002030BD0246506940EA6F
:100BE0004100506100207047F8B506460C46154696
:100BF000002000900027D4E900010843A168491EA5
:100C000040EA4110E16840EA4120009000983061DC
:100C100001F0A4F9074609E0681C38B125B101F0DC
:100C20009DF9C01BA84201D90320F8BDB06900F0AE
:100C300020000028F0D100BFF7E770B50346154645
:100C400000220024012D1FD09A6802F0704208682B
:100C5000401E4E68761E40EA06168868401E46EA28
:100C60000026C868401E46EA0036088A401E46EA4A
:100C70000046888A401E46EA0056087E401E46EA24
:100C8000006002439A6022E0DA6802F0704208686D
:100C9000401E4E68761E40EA06168868401E46EAE8
:100CA0000026088A401E46EA0046087E401E46EAA4
:100CB000006002439C6804F07044C868401E06034C
:100CC000888A401E46EA00500443DA609C60002097
:100CD00070BD000010B588B0012400BF0020009056
:100CE0005548006840F08000534908600846006895
:100CF00000F08000009000BF00BF00BF0020009007
:100D00000846006840F4807008600846006800F4F7
:100D10008070009000BF00BF8020019000200290F2
:100D2000012003900320049001A9444800F0FAFF39
:100D3000200201900120029001A9414800F0F2FF39
:100D4000FFF778FD00203F490860142009F000FA01
:100D500001203D49C1F8A002322009F0F9F9002034
:100D60008DF81800022206A9A12000F07DF89DF858
:100D70001800302803D19DF81900032807D09DF8EA
:100D80001900012803D09DF81900022824D19DF8EC
:100D900019009DF8182000EB02212CA0FFF782FA21
:100DA000012206A9002000F03FFA012206A9A42092
:100DB00000F03AFA16208DF81800012206A98020CA
:100DC00000F032FA0C208DF81800012206A98820C4
:100DD00000F02AFA00242BE0042206A948F2401071
:100DE00000F01CFB00208DF81C0006A91AA0FFF7DC
:100DF00059FA1C480699016002208DF8180001225A
:100E000006A948F2400000F017FD012206A948F2A9
:100E1000470000F003FB0A2009F09AF900208DF842
:100E20001800012206A948F2400000F005FD002448
:100E3000204608B010BD000030380240001C0240BF
:100E400000200240A002444200004442435450208B
:100E500049443A25780D0A004354502049443A2524
:100E6000730D0A00340000202DE9F04106460F46BC
:100E70001546FFF787FD7020FFF762FDFFF7B2FD13
:100E8000F0B2FFF75DFDFFF7ADFDFFF77BFD7120D1
:100E9000FFF756FDFFF7A6FD00240BE0691EA142F7
:100EA00001D0012100E000210846FFF721FD38555F
:100EB000601CC4B2AC42F1DBFFF77EFDBDE8F081FF
:100EC00071B583B0002001900026CF480078401C07
:100ED000CD490870084600780A2190FBF1F201FB29
:100EE000120018B1C84800780A287DDAC7A1C8489E
:100EF000FFF7DCFAD8B9012203A948F24E1000F03E
:100F00008DFA9DF80C0000F08000A8B19DF80C004F
:100F100000F00F00BF49097888420DDC00200190E5
:100F2000012201A948F24E1000F086FC04E00122E3
:100F300003A90220FFF798FF9DF80C0000F00F00B6
:100F4000002851D09DF80C0000F00F00B14909783D
:100F5000884249DC9DF80C0000F00F01FF2088401A
:100F6000C4B2AD48858EE04380B240F0C000AA49CB
:100F7000888608468289A7480078401E0C3121F8EF
:100F80001020A548028CA3480078401E143121F897
:100F90001020042009F0DCF800200190AAE09E480F
:100FA000808E9DF8042001219140084000282FD018
:100FB00096A19748FFF77AFAE8BB98499DF8042074
:100FC00031F81200042202A900F028FA924890F8A1
:100FD000440000F00100E0B19DF808009DF8091000
:100FE00000EB012081B200E0C2E08B480C309DF89C
:100FF000042020F812109DF80A009DF80B1000EB59
:10100000012081B2844820309DF8042020F812107D
:101010006BE09DF808009DF8091000EB012081B2FB
:101020007D4820309DF8042020F812109DF80A0019
:101030009DF80B1000E00CE000EB012078490988D6
:10104000081A81B274480C309DF8042020F8121060
:101050004BE074499DF8042031F81200042202A9E3
:10106000FFF702FF6C4890F8440000F00100E0B187
:101070009DF809009DF8081001F00F0100EB012018
:10108000654920319DF8042021F812009DF80B00DD
:101090009DF80A1001F00F0100EB01205E490C31B0
:1010A0009DF8042021F812001FE09DF809009DF82A
:1010B000081001F00F0100EB012059490988081AB6
:1010C00081B255480C309DF8042020F812109DF88C
:1010D0000B009DF80A1001F00F0100EB01204E49B2
:1010E00020319DF8042021F812009DF80400401CD6
:1010F000C0B201909DF80400464909788842FFF685
:101100004EAF01264448808945490988884205DC5C
:101110004148008C42494988884226DD9DF80C00F0
:1011200000F00F0001280ADD3B48C0893A49888158
:101130000846408C088400203349087018E0354880
:101140000078401E34490C3131F810000C39888188
:1011500030480078401E203131F8100020390884D2
:10116000802003900846858602E00020264908700A
:1011700026A12748FFF79AF9F0B99DF80C0000F076
:101180008F00802835D1244890F8340000F080008A
:1011900030B12148808E20F080001F49888628E0E9
:1011A0004FF6FF701C4988810884084690F8340087
:1011B00000F0E00088861CE09DF80C0000F01F00A5
:1011C000B8B9154890F8340000F0800030B11248EA
:1011D000808E20F08000104988860AE04FF6FF706C
:1011E0000D4988810884084690F8340000F0E0003A
:1011F000888605480078F02802DD0A200249087038
:10120000304604B070BD00003A0000203931310092
:1012100034000020390000203C000020FEF40008CB
:101220006C020020F4F400082DE9F04105460E465A
:1012300017464FF00008FFF7A5FB7020FFF780FB73
:10124000FFF7D0FBE8B2FFF77BFBFFF7CBFB0024F7
:101250000BE0305DFFF774FBFFF7C4FB8046B8F18D
:10126000000F00D003E0601CC4B2BC42F1DB00BF41
:10127000FFF7A2FB4046BDE8F081000000B589B051
:1012800000BF002001905148006840F080004F49A5
:1012900008600846006800F08000019000BF00BFB1
:1012A00000BF002001900846006840F4807008608C
:1012B0000846006800F48070019000BF00BF8020E5
:1012C000029000200390012004900320059002A9C1
:1012D0003F4800F027FD4FF48070029001200390FA
:1012E00002A93C4800F01EFDFFF7A4FA00203A498D
:1012F00008600A2008F02CFF01203849C1F8A0023C
:101300000A2008F025FF802002900020039004901E
:101310000320059002A92E4800F004FD642008F087
:1013200017FF042207A948F2401000F077F80020C8
:101330008DF8200007A92AA0FEF7B4FF2BA107A86B
:10134000FFF7B4F888B12AA107A8FFF7AFF860B19A
:1013500029A107A8FFF7AAF838B129A107A8FFF724
:10136000A5F810B1012009B000BD21A107A8FFF721
:101370009DF840BB02208DF81C00012207A948F20D
:10138000400000F059FA012207A948F2470000F096
:1013900045F89DF81C00602807DA9DF81C101AA07B
:1013A000FEF780FF012000F019FA0A2008F0D0FEB5
:1013B00000208DF81C00012207A948F2400000F02F
:1013C0003BFA0020CFE70020CDE700003038024094
:1013D000001C024000200240A0024442000044429F
:1013E0004354502049443A25730D0A0039313100E5
:1013F0003931343700000000313135380000000049
:10140000393237310000000044656661756C742024
:101410005665723A25640D0A000000002DE9F0417E
:1014200005460F461646FFF7ADFA2820FFF788FA63
:10143000FFF7D8FA2812FFF783FAFFF7D3FAE8B2DA
:10144000FFF77EFAFFF7CEFAFFF79CFA2920FFF7A5
:1014500077FAFFF7C7FA00240BE0711EA14201D012
:10146000012100E000210846FFF742FA3855601CD0
:10147000C4B2B442F1DBFFF79FFABDE8F08100008F
:1014800071B583B000240026D0480078401CCF49B5
:101490000870084600780A2190FBF1F201FB120067
:1014A00018B1CA4800780A2871DA012203A948F263
:1014B0004E10FFF7B3FF9DF80C0000F0800068B1FC
:1014C0009DF80C0000F00F00062807DA00200190BC
:1014D000012201A948F24E1000F0AEF99DF80C006F
:1014E00000F00F00002852D09DF80C0000F00F0013
:1014F0000628D9DA9DF80C0000F00F01FF20884083
:10150000C0B20190B24890F834509DF80400C04336
:1015100080B240F0C000AE49888608468189818249
:10152000018C01850024F9E0A948808E0121A140A9
:10153000084000282AD0A74931F81400042202A943
:10154000FFF76CFFA448808845F21051884236D1DD
:101550009F4890F8440000F00100C8B19DF80800D1
:101560009DF8091000EB012081B29948203020F845
:1015700014109DF80A009DF80B1000EB0120C0F537
:10158000487081B292480C3020F81410C4E0F5E0A5
:101590009DF808009DF8091000EB012081B28C48ED
:1015A0000C3020F814109DF80A009DF80B1000EB89
:1015B000012081B28648203020F81410ACE0864823
:1015C000808844F24231884235D1814890F8440005
:1015D00000F00100B0B19DF808009DF8091000EB83
:1015E000012081B27A480C3020F814109DF80A00CE
:1015F0009DF80B1000EB012081B27548203020F8D7
:10160000141089E09DF808009DF8091000EB0120F6
:1016100081B26F48203020F814109DF80A009DF820
:101620000B1000EB0120C0F5887081B268480C30C7
:1016300020F8141070E06848808844F284318842B1
:1016400035D1634890F8440000F00100B0B19DF836
:1016500008009DF8091000EB012081B25C480C30B5
:1016600020F814109DF80A009DF80B1000EB0120E3
:1016700081B25748203020F814104DE09DF8080042
:101680009DF8091000EB012081B25148203020F86C
:1016900014109DF80A009DF80B1000EB0120C0F516
:1016A000F07081B24A480C3020F8141034E04848F9
:1016B00090F8440000F00100C0B19DF808009DF8CA
:1016C000091000EB012081B24148203020F81410AD
:1016D0009DF80A009DF80B1000EB0120C0F5487042
:1016E00081B23B480C3020F8141015E09DF808003A
:1016F0009DF8091000EB012081B235480C3020F82C
:1017000014109DF80A009DF80B1000EB012081B227
:101710002F48203020F81410601CC4B2052CFFF6AE
:1017200003AF01262A4880892B490988884205DCB5
:101730002748008C2849498888421CDD9DF80C0008
:1017400000F00F0001280ADD2148C0892049888166
:101750000846408C088400201C4908700EE01C4894
:10176000808A1B4988810846008D08848020039068
:101770000846858602E00020144908709DF80C0098
:1017800000F08F00802817D1114890F8340000F045
:10179000800030B10E48808E20F080000C49888691
:1017A0000AE04FF6FF700A4988810884084690F8DD
:1017B000340000F0E000888604480078F02802DD5C
:1017C0000A2002490870304604B070BD9000002025
:1017D0003C000020C4F500086C02002038B5054626
:1017E000002400208DF800008DF8015000BF09E0B2
:1017F0009DF800000F49095D0844C0B28DF8000053
:10180000601CC4B2B82CF3D39DF80000C043401C48
:10181000C0B28DF80000B822064948F2470000F037
:101820000BF80222694648F2FF0000F005F800209C
:1018300038BD00000CF500082DE9F04104460E46C5
:1018400017464FF00008FFF79DF82820FFF778F8BB
:10185000FFF7C8F82012FFF773F8FFF7C3F8E0B2FC
:10186000FFF76EF8FFF7BEF800250BE0705DFFF79D
:1018700067F8FFF7B7F88046B8F1000F00D003E033
:10188000681CC5B2BD42F1DB00BFFFF795F84046CA
:10189000BDE8F08100B589B000BF00200190484844
:1018A000006840F08000464908600846006800F083
:1018B0008000019000BF00BF00BF002001900846DB
:1018C000006840F4807008600846006800F480708A
:1018D000019000BF00BF80200290002003900120F3
:1018E00004900320059002A9364800F01BFA4FF43B
:1018F000807002900120039002A9334800F012FA90
:10190000FEF798FF00224FF480712F4800F020FB73
:101910000A2008F01DFC012211022B4800F018FBE0
:101920000A2008F015FC802002900020039004900B
:101930000320059002A9234800F0F4F9642008F080
:1019400007FC042207A948F2401000F055F80020D7
:101950008DF8200007A91DA0FEF7A4FC1FA107A871
:10196000FEF7A4FD48BB02208DF81C00012207A948
:1019700048F24000FFF760FF012207A948F2470044
:10198000FFF74CFD9DF81C00412807DA9DF81C105C
:1019900014A0FEF787FC012000F068F90A2008F087
:1019A000D7FB00208DF81C00012207A948F2400057
:1019B000FFF742FF002009B000BD0120FBE7000057
:1019C00030380240001C02400020024043545020A6
:1019D00049443A25730D0A0D0A00000039323731A7
:1019E0000000000044656661756C74205665723AAB
:1019F00025640D0A000000002DE9F04105460F4660
:101A00001646FEF7BFFF2820FEF79AFFFEF7EAFF13
:101A10002812FEF795FFFEF7E5FFE8B2FEF790FF0C
:101A2000FEF7E0FFFEF7AEFF2920FEF789FFFEF785
:101A3000D9FF00240BE0711EA14201D0012100E07A
:101A400000210846FEF754FF3855601CC4B2B4426A
:101A5000F1DBFEF7B1FFBDE8F081000071B583B0A6
:101A60000020019000267D480078401C7B490870CA
:101A7000084600780A2190FBF1F201FB120018B130
:101A8000764800780A286EDA012203A948F24E103F
:101A9000FFF7B2FF9DF80C0000F0800068B19DF8E0
:101AA0000C0000F00F000B2807DA00200190012243
:101AB00001A948F24E1000F007F99DF80C0000F063
:101AC0000F0000284FD09DF80C0000F00F000B28ED
:101AD000D9DA9DF80C0000F00F014FF6FF70884036
:101AE00084B25F48858EE04380B240F0C0005C491C
:101AF000888608468189C183018C41860020019037
:101B000053E05748808E9DF8042001219140084001
:101B100040B354499DF8042031F81200062202A96E
:101B2000FFF76AFF4E4890F8440000F00100D8B17A
:101B30009DF80A009DF80B1000EB012081B2484887
:101B400020309DF8042020F812109DF808009DF820
:101B5000091000EB012081B241480C309DF80420AF
:101B600020F812101CE051E09DF80A009DF80B10BF
:101B700000EB0120C0F5487081B239480C309DF867
:101B8000042020F812109DF808009DF8091000EBC1
:101B9000012081B2324820309DF8042020F8121034
:101BA0009DF80400401CC0B201909DF804000A2872
:101BB000A7DB01262A4880892B490988884205DC51
:101BC0002748008C2849498888421CDD9DF80C0074
:101BD00000F00F0001280ADD2148C08920498881D2
:101BE0000846408C088400201C4908700EE01C4800
:101BF000C08B1B4988810846408E08848020039052
:101C00000846858602E00020144908709DF80C0003
:101C100000F08F00802816D1114890F8340000F0B1
:101C2000800030B10E48808E20F080000C498886FC
:101C300009E04FF6FF700A49888108840846808EC3
:101C400000F46040888605480078F02802DD0A200C
:101C500002490870304604B070BD000091000020B9
:101C60003C00002088F600086C02002038B50546CC
:101C7000002400208DF800008DF8015000BF09E01D
:101C80009DF800000F49095D0844C0B28DF80000BE
:101C9000601CC4B2B82CF3D39DF80000C043401CB4
:101CA000C0B28DF80000BA22064948F2470000F0A1
:101CB0000BF80222694648F2FF0000F005F8002008
:101CC00038BD0000CEF500082DE9F04104460E466F
:101CD00017464FF00008FEF755FE2820FEF730FEAD
:101CE000FEF780FE2012FEF72BFEFEF77BFEE0B231
:101CF000FEF726FEFEF776FE00250BE0705DFEF790
:101D00001FFEFEF76FFE8046B8F1000F00D003E023
:101D1000681CC5B2BD42F1DB00BFFEF74DFE404678
:101D2000BDE8F081F8B502460B46002500240020EE
:101D30000021E6E0012606FA01F51E6806EA050420
:101D4000AC4273D15E68022E02D05E68122E13D1AF
:101D5000CF0802F1200656F827004E07F70E0F268F
:101D6000BE40B0434F07FF0E1E69BE403043CF0850
:101D700002F1200646F8270010684F000326BE40F7
:101D8000B0431E7906F003064F00BE40304310609A
:101D90005E68012E08D05E68022E05D05E68112EA6
:101DA00002D05E68122E13D190684F000326BE4009
:101DB000B0434F00DE68BE4030439060506801265B
:101DC0008E40B0431E79C6F300168E4030435060FB
:101DD000D0684F000326BE40B0434F009E68BE400F
:101DE0003043D0605E6806F08056B6F1805FA8D1BF
:101DF00000BF00260096454E366846F48046434FA5
:101E00003E603E46366806F48046009600BF00BF3E
:101E10003F4E8F0856F827008E07370F0F26BE401B
:101E2000B0433C4EB24202D100262EE068E03A4E6A
:101E3000B24201D1012628E0384EB24201D1022639
:101E400023E0374EB24201D103261EE0354EB242A6
:101E500001D1042619E0344EB24201D1052614E026
:101E6000324EB24201D106260FE0314EB24201D1CC
:101E700007260AE02F4EB24201D1082605E02E4E79
:101E8000B24201D1092600E00A268F073F0FBE406B
:101E900030431F4E8F0846F82700284E3068A04375
:101EA0005E6806F48036B6F5803F00D12043234EAD
:101EB0003060361D3068A0435E6806F40036B6F523
:101EC000003F00D120431D4E361D3060361D306866
:101ED000A0435E6806F48016B6F5801F00D120434B
:101EE000164E08363060361D3068A0435E6806F432
:101EF0000016B6F5001F00D12043104E0C3630609E
:101F0000491C1029FFF416AFF8BD00004438024008
:101F1000083801400000024000040240000802406E
:101F2000000C024000100240001402400018024061
:101F3000001C02400020024000240240003C0140FE
:101F4000024613690B400BB1012000E000207047EE
:101F50000AB1816101E00B048361704701480068A8
:101F6000704700001400002002480068401C01492E
:101F7000086070471400002010B50D48006840F458
:101F800000700B4908600846006840F480600860F3
:101F90000846006840F480700860052000F04EFAA2
:101FA0000F2000F007F800F0F9F9002010BD000044
:101FB000003C024070B5044600F0B2FD4FF47A7167
:101FC000B0FBF1F5284601F0CFF900222146501E62
:101FD00000F0F6F9002070BD70B504460E461546B7
:101FE00000BF94F8A000012801D1022070BD01209B
:101FF00084F8A00000BF022084F8A10005EB850151
:1020000001EBC50204F1380101EB820034223146B4
:10201000FEF71AFA2A463146204605F027FD012030
:102020002168486284F8A10000BF002084F8A00065
:1020300000BF00BFDAE7000070B5044600250026A7
:102040000CB9012070BD94F8A10028B9002084F8D3
:10205000A000204600F084F8022084F8A100206847
:10206000806920F0704021688861D4E9010108434B
:10207000E1680843216908432168896908432168A8
:102080008861206880683549084021688860A08A96
:10209000050420688068A169294308432168886095
:1020A0002068C0682D4908402168C860A08B0504DD
:1020B0002068C068216A294308432168C8602068F5
:1020C00000692649084021680861A08C0504206841
:1020D0000069A16A294308432168086120684069B2
:1020E0001E49084021684861A08D050420684069A8
:1020F000216B294308432168486194F835000502A3
:1021000094F8360006042068C06A00F07F40216819
:10211000C86246EA050094F8341008432168C96A89
:1021200008432168C8622068406B40F004002168C1
:1021300048632068406B40F00200216848632068D3
:10214000806940F00100216888610020C4F8A40083
:10215000012084F8A100002074E7000000F800F0DE
:1021600010B586B0044600BF002000904D480068BE
:1021700040F080604B4908600846006800F08060CD
:10218000009000BF00BF00BF0020009045481438F9
:10219000006840F4000043491439086008460068AC
:1021A00000F40000009000BF00BF00BF00200090BE
:1021B0000846006840F0020008600846006800F029
:1021C0000200009000BF00BF00BF00200090084642
:1021D000006840F0200008600846006800F0200019
:1021E000009000BF00BF00BF0020009008460068BC
:1021F00040F0400008600846006800F04000009091
:1022000000BF00BF00BF002000900846006840F0FB
:10221000800008600846006800F08000009000BF61
:1022200000BF00BF002000900846006840F48070A6
:1022300008600846006800F48070009000BF00BF8E
:10224000202001900120029003900320049001A916
:102250001548FFF767FD4FF480600190022002905F
:1022600000200390032004900E20059001A90F4840
:10227000FFF758FD4FF40C60019001A90C48FFF7DF
:1022800051FD4FF47E40019001A90A48FFF74AFD35
:1022900040F2F760019001A90748FFF743FD06B03F
:1022A00010BD000044380240000402400014024007
:1022B00000180240001C0240002002402DE9F041BD
:1022C00004460E461746984600BF94F8A000012821
:1022D00002D10220BDE8F081012084F8A00000BFF7
:1022E000022084F8A10008EB880000EBC80104F18B
:1022F000380000EB81052E60A86A30446860AF604A
:10230000E86A3844E86042462946204605F0AEFBBC
:1023100001202168486284F8A10000BF002084F8F1
:10232000A00000BF00BFD5E72DE9F04105460E46ED
:102330001746984600BF95F8A000012802D1022058
:10234000BDE8F081012085F8A00000BF022085F8DB
:10235000A10008EB880000EBC80105F1380000EB94
:102360008104002020602068304460600020A0606C
:10237000A0683844E060A662E762424621462846EB
:1023800005F074FB01202968486285F8A10000BFB0
:10239000002085F8A00000BF00BFD1E708B50020ED
:1023A000009000BF08BD00BF00F01F020121914056
:1023B0004209920002F1E022C2F8001100BF70470A
:1023C0002DE9F05F80460D461646002705F07CFC9F
:1023D000074639462A46334601F00700C0F1070A8E
:1023E000BAF1040F02D94FF0040A01E0C0F1070A64
:1023F000D14600F1040ABAF1070F02D24FF0000AE9
:1024000001E0A0F1030AD4464FF0010A0AFA09FAE2
:10241000AAF1010A0AEA020A0AFA0CFA4FF0010BC1
:102420000BFA0CFBABF1010B0BEA030B4AEA0B04B2
:102430002146404605F050FCBDE8F09F00BF00F08B
:102440000702064B19684FF6FF031940044B0B4374
:1024500043EA0221014B196000BF70470CED00E018
:102460000000FA0538B5002400BF00200090234882
:10247000006840F08050214908600846006800F07C
:102480008050009000BF00BF0120010491FAA1F12B
:10249000B1FA81F11A4A42F82100FFF75FFD0446C4
:1024A00007E0FFF75BFD001BB0F57A7F01D9032041
:1024B00038BD1448406800F48030B0F5803FF0D15A
:1024C0000120410491FAA1F1B1FA81F10C4A42F8DC
:1024D0002100FFF743FD044607E0FFF73FFD001B27
:1024E000B0F57A7F01D90320E2E70648406800F49E
:1024F0000030B0F5003FF0D10020D9E7403802406D
:1025000000000E4200700040F8B504460025002689
:10251000207800F0010020B9207800F002000228A5
:1025200066D10020CC498866FFF718FD054606E015
:10253000FFF714FD401B642801D90320F8BDC748EC
:102540000068C0F3C0600028F2D1207800F00100DC
:1025500098B147F6C07191FAA1F1B1FA81F16068C2
:1025600088404FF0E04292FAA2F2B2FA82F2A168F9
:1025700091400843B94984310860207800F0020096
:10258000022821D1B5488430006800F0E0404FF0C7
:10259000E04191FAA1F1B1FA81F120FA01F6606807
:1025A0008101207B41EA006040EA0670AB4984313A
:1025B0000860AA488C30006820F01F00E169491EBD
:1025C0000843A6498C3108600120A3498866FFF7BB
:1025D000C5FC054606E0FFF7C1FC401B642801D995
:1025E0000320ABE79D480068C0F3C0600028F2D02C
:1025F000207800F00400042804D0207800F00800BF
:1026000008287DD1002094490867FFF7A7FC0546FC
:1026100006E0FFF7A3FC401B642801D903208DE7E7
:102620008E480068C0F340700028F2D1207800F096
:102630000400042834D189488830006800F0E04064
:102640004FF0E04191FAA1F1B1FA81F120FA01F6DF
:1026500047F6C07191FAA1F1B1FA81F12069884081
:102660004FF0706292FAA2F2B2FA82F2616991407E
:1026700008434FF0E04191FAA1F1B1FA81F106FA75
:1026800001F10843754988310860081D006820F48D
:10269000F851206A401E41EA002070498C310860E0
:1026A000207800F00800082834D16C488830006891
:1026B00000F070604FF0706191FAA1F1B1FA81F110
:1026C00020FA01F647F6C07191FAA1F1B1FA81F151
:1026D000206988404FF0706191FAA1F1B1FA81F15F
:1026E00006FA01F108434FF0E04292FAA2F2B2FA80
:1026F00082F2A1699140084358498831086000E09E
:102700001CE0081D006820F44030616A084353490A
:102710008C310860012050490867FFF71FFC05460F
:1027200006E0FFF71BFC401B642801D9032005E7E6
:102730004A480068C0F340700028F2D0207800F0CA
:10274000200020287DD100BF002000904348403069
:10275000006840F0805041494031086008460068F8
:1027600000F08050009000BF00BF3D48006840F47A
:1027700080703B490860FFF7F1FB054606E0FFF774
:10278000EDFB401B642801D90320D7E634480068DC
:1027900000F480700028F2D030487030006800F4F7
:1027A0004070218D01F4407188424AD02B4870302E
:1027B000006820F4407601202A4908600020086063
:1027C00026487030066006F0020098B1FFF7C6FB9D
:1027D000054608E0FFF7C2FB401B41F28831884202
:1027E00001D90320AAE61D4870300068C0F34000FC
:1027F0000028EFD000BF208D00F44070B0F5407F7E
:102800000CD116480830006820F4F810164AA16A66
:102810001140084311490831086007E00F480830AB
:10282000006820F4F8100D49083108600B4870303A
:102830000068218DC1F30B0108430849703108601D
:1028400000BF207800F01000102803D194F82C006D
:1028500006490860002071E6000047420038024047
:1028600000700040400E4742FFFCFF0FE01147425E
:1028700070B504460E460025A748006800F00F001A
:10288000B0426FD2A4490E700846006800F00F00F5
:10289000B04201D0012070BD207800F00200022873
:1028A00007D19E48006820F0F000A16808439B49CA
:1028B0000860207800F0010000283ED06068012800
:1028C00007D1964808380068C0F34040B8B90120E5
:1028D000E1E76068022802D06068032807D18F48CA
:1028E00008380068C0F3406048B90120D3E78B483E
:1028F00008380068C0F3400008B90120CBE78748DA
:10290000006820F003006168084384490860FFF70D
:1029100025FB05466068012810D108E0FFF71EFB83
:10292000401B41F28831884201D90320B3E77B483C
:10293000006800F00C000428F0D1CDE060680228A7
:1029400011D108E0FFF70AFB401B41F288318842B1
:1029500001D903209FE77148006800F00C000828A7
:10296000F0D1B9E024E06068032810D108E0FFF757
:10297000F5FA401B41F28831884201D903208AE7E9
:102980006648006800F00C000328F0D1A4E008E0DD
:10299000FFF7E4FA401B41F28831884201D9032055
:1029A00079E75E48006800F00C000028F0D193E061
:1029B000207800F00200022807D15848006820F073
:1029C000F000A168084355490860207800F0010034
:1029D000002877D06068012807D15048083800687F
:1029E000C0F34040B8B9012055E76068022802D022
:1029F0006068032807D1494808380068C0F3406080
:102A000048B9012047E7454808380068C0F340004E
:102A100008B901203FE74148006820F003006168E1
:102A200008433E490860FFF799FA054660680128A7
:102A300010D108E0FFF792FA401B41F2883188423A
:102A400001D9032027E73548006800F00C0004286E
:102A5000F0D137E06068022810D108E0FFF77EFA75
:102A6000401B41F28831884201D9032013E72B48EB
:102A7000006800F00C000828F0D123E0606803280B
:102A800010D108E0FFF76AFA401B41F28831884212
:102A900001D90320FFE62148006800F00C0003285C
:102AA000F0D10FE008E0FFF759FA401B41F28831FE
:102AB000884201D90320EEE61848006800F00C00B7
:102AC0000028F0D114490E700846006800F00F008D
:102AD000B04201D00120DEE6207800F00400042896
:102AE00007D10E48006820F4E050E16808430B4924
:102AF0000860207800F00800082808D1074800681E
:102B000020F46040216940EAC100044908600F20B8
:102B1000FFF750FA0020BEE6003C024008380240B1
:102B200010B500F045F80949096801F0F001F022FC
:102B300092FAA2F2B2FA82F2D140054A515CC84040
:102B4000044908600846006810BD000008380240CB
:102B5000A4AD00080000002010B5FFF7E1FF074911
:102B6000096801F4E0514FF4E05292FAA2F2B2FA8D
:102B700082F2D140024A515CC84010BD0838024080
:102B8000A4AD000810B5FFF7CBFF0749096801F4B1
:102B900060414FF4604292FAA2F2B2FA82F2D1405E
:102BA000024A515CC84010BD08380240A4AD00087C
:102BB00070B50021002200230020274C246804F077
:102BC0000C0424B1042C04D0082C41D103E0234888
:102BD00040E023483EE0204C241F246804F03F01DD
:102BE0001D4C241F246804F4800484B11C4CB4FBE5
:102BF000F1F5194C241F246847F6C076344096FA44
:102C0000A6F6B6FA86F6F44005FB04F20FE0134C84
:102C1000B4FBF1F5104C241F246847F6C07634400D
:102C200096FAA6F6B6FA86F6F44005FB04F20A4CCC
:102C3000241F246804F440344FF4403595FAA5F578
:102C4000B5FA85F5EC40641C6300B2FBF3F001E0DB
:102C5000024800BF00BF70BD083802400024F400E5
:102C600040787D0138B504460025207800F0010049
:102C7000002866D0F748006800F00C0004280DD04A
:102C8000F448006800F00C00082813D1F148001F38
:102C9000006800F48000B0F5800F0BD1ED480838D3
:102CA0000068C0F3404000284BD06068002848D13D
:102CB000012038BD0020E749891F0870FFF74EF951
:102CC000054608E0FFF74AF9401B41F28831884287
:102CD00001D90320EDE7DF4808380068C0F3404021
:102CE0000028EFD12079DB49891F08706068A0B106
:102CF000FFF734F9054608E0FFF730F9401B41F2D1
:102D00008831884201D90320D3E7D24808380068C7
:102D1000C0F340400028EFD013E0FFF71FF905464D
:102D200008E0FFF71BF9401B41F28831884201D9C6
:102D30000320BEE7C74808380068C0F340400028B9
:102D4000EFD1207800F00200022869D1C148006864
:102D500000F00C0058B1BF48006800F00C000828D3
:102D600021D1BC48001F006800F48000D8B9B948E0
:102D700008380068C0F3400020B1E068012801D0A5
:102D8000012096E7B3480838006820F0F800F822E0
:102D900092FAA2F2B2FA82F2216991400843AD4957
:102DA000083908603CE0E06828B30120AA490860BF
:102DB000FFF7D4F8054606E0FFF7D0F8401B64287B
:102DC00001D9032075E7A34808380068C0F3400024
:102DD0000028F1D09F480838006820F0F800F82259
:102DE00092FAA2F2B2FA82F221699140084399491B
:102DF0000839086014E0002097490860FFF7AEF832
:102E0000054606E0FFF7AAF8401B642801D9032015
:102E10004FE7904808380068C0F340000028F1D11F
:102E2000207800F0080008282CD16069A8B10120A2
:102E30008A490860FFF792F8054606E0FFF78EF82A
:102E4000401B642801D9032033E782486C300068B6
:102E5000C0F340000028F1D014E000207F49086052
:102E6000FFF77CF8054606E0FFF778F8401B64287A
:102E700001D903201DE777486C300068C0F340009B
:102E80000028F1D1207800F0040004286FD100BFA1
:102E9000002000906F483830006840F080506D4945
:102EA000383108600846006800F08050009000BF8C
:102EB00000BF6B48006840F4807069490860FFF704
:102EC0004DF8054606E0FFF749F8401B642801D994
:102ED0000320EEE66248006800F480700028F2D01B
:102EE00000205C4968310870FFF738F8054608E0B3
:102EF000FFF734F8401B41F28831884201D90320A2
:102F0000D7E6544868300068C0F340000028EFD18D
:102F1000207A504968310870A068A0B1FFF71EF808
:102F2000054608E0FFF71AF8401B41F28831884255
:102F300001D90320BDE6474868300068C0F340006F
:102F40000028EFD013E0FFF709F8054608E0FFF787
:102F500005F8401B41F28831884201D90320A8E6D8
:102F60003C4868300068C0F340000028EFD1A069F9
:102F7000F0B33848006800F00C00082872D0A0694F
:102F8000022850D1002034490866FEF7E7FF0546C5
:102F900006E0FEF7E3FF401B642801D9032088E622
:102FA0002C4808380068C0F340600028F1D1D4E90B
:102FB0000701084347F6C07292FAA2F2B2FA82F20F
:102FC000616A914008430122A16AC2EB51014FF4AA
:102FD000403292FAA2F2B2FA82F2914008434FF0E4
:102FE000706292FAA2F2B2FA82F2E16A914000E0D3
:102FF0003AE008431749091F08600120164908668E
:10300000FEF7ACFF054606E0FEF7A8FF401B64286C
:1030100001D903204DE60F4808380068C0F340602E
:103020000028F1D020E000200B490866FEF796FF4B
:10303000054606E0FEF792FF401B642801D90320F5
:1030400037E6044808380068C0F340600028F1D132
:103050000AE007E00838024000004742800E47427D
:1030600000700040012024E6002022E670B50446EE
:103070000D460CB9012070BD94F82C0028B9002031
:1030800084F82D00204600F011F8022084F82C006E
:10309000211D2068FDF767FD2946D4E90002FDF7F0
:1030A000CCFD012084F82C000020E4E710B586B0A8
:1030B000044600BF002000904348006840F0010033
:1030C000414908600846006800F00100009000BF18
:1030D00000BF00BF002000903B480838006840F067
:1030E00004003949083908600846006800F0040007
:1030F000009000BF00BF00BF00200090084600689D
:1031000040F0080008600846006800F008000090E1
:1031100000BF00BF00BF002000900846006840F0DC
:10312000100008600846006800F01000009000BF22
:1031300000BF00BF002000900846006840F020005B
:1031400008600846006800F02000009000BF00BF43
:1031500000BF002000900846006840F04000086072
:103160000846006800F04000009000BF00BF0D203E
:1031700001900220029001200390032004900C2073
:10318000059001A91148FEF7CDFD4CF203700190A6
:1031900001A90F48FEF7C6FD4FF68370019001A903
:1031A0000C48FEF7BFFD4FF63F00019001A90A4809
:1031B000FEF7B8FD48F23710019001A90748FEF765
:1031C000B1FD06B010BD00003838024000080240D2
:1031D000000C02400010024000140240001802409F
:1031E00070B504460D4694F82C00022800D170BD3D
:1031F000022084F82C0029462068FDF7EEFC01200F
:1032000084F82C000020F2E770B504460D461646FF
:1032100094F82C00022800D170BD022084F82C0004
:10322000324629462068FDF7DFFC2868022803D1D2
:10323000052084F82C0002E0012084F82C000020F6
:10324000EAE770B504460E4615460CB9012070BD7C
:1032500094F8490028B9002084F84800204600F07E
:103260001DF804F108012068FDF70EFC3146A26844
:103270002068FDF749FC2946236BD4E90102FDF7DC
:10328000DFFBA168206850F8210040F00100A2682F
:10329000216841F822000020D9E7000010B586B06F
:1032A000044600BF002000902248006840F0010062
:1032B000204908600846006800F00100009000BF47
:1032C00000BF00BF002000901A480838006840F096
:1032D00008001849083908600846006800F008002E
:1032E000009000BF00BF00BF0020009008460068AB
:1032F00040F0100008600846006800F010000090E0
:1033000000BF00BF4EF2B370019002200290012076
:103310000390032004900C20059001A90648FEF7B5
:1033200001FD4FF68070019001A90448FEF7FAFCF8
:1033300006B010BD38380240000C024000100240B8
:10334000042808D14FF0E021096941F004014FF051
:10335000E022116107E04FF0E021096921F004014A
:103360004FF0E0221161704770B504462546681E93
:10337000B0F1807F01D301200FE0681E4FF0E02103
:1033800048610F214FF0FF3004F0A6FC00204FF001
:10339000E021886107200861002070BD7047014668
:1033A00091F839007047F8B50446002500262068DA
:1033B000006800F001052068C06800F480767DB1E7
:1033C00076B100BF0020009020680068009020685F
:1033D0004068009000BF00BFE06B40F00100E06378
:1033E00020680068C0F340052068406900F00106CD
:1033F0007DB176B100BF0020009020680068009089
:1034000020684068009000BF00BFE06B40F00400FF
:10341000E06320680068C0F380052068406900F020
:1034200001067DB176B100BF0020009020680068E1
:10343000009020684068009000BF00BFE06B40F043
:103440000200E06320680068C0F3C005206840699E
:1034500000F001067DB176B100BF00200090206829
:103460000068009020684068009000BF00BFE06BDB
:1034700040F00800E06320680068C0F34015206851
:10348000C06800F020061DB116B1204605F0B8FF57
:1034900020680068C0F3C0152068C06800F080068E
:1034A0001DB116B1204606F01BF920680068C0F374
:1034B00080152068C06800F040061DB116B1204696
:1034C00005F086FFE06B28B1012084F83900204622
:1034D000FFF764FFF8BD10B504460CB9012010BD1C
:1034E000A06900B100E000BF94F8390028B90020BD
:1034F00084F83800204600F025F8022084F83900CE
:103500002068C06820F400502168C860204605F09B
:10351000D5FF2068006920F4904021680861206888
:10352000406920F02A00216848612068C06840F4A2
:1035300000502168C8600020E063012084F8390051
:103540000020CCE710B586B00446224920688842A6
:103550003ED100BF002000901F48006840F00100ED
:103560001D4908600846006800F00100009000BF97
:1035700000BF00BF0020009017481430006840F0E2
:1035800010001549143108600846006800F010006A
:10359000009000BF00BF481501900220029001205A
:1035A0000390022004900720059001A90B48FEF724
:1035B000B9FB4FF48060019001A90848FEF7B2FB07
:1035C0002520FEF7F0FE032211462520FEF7F8FE27
:1035D00006B010BD0010014030380240000002402B
:1035E0002DE9F04704460D46164699464FF000086F
:1035F00094F83980B8F1010F02D0B8F1120F69D1F7
:1036000005B116B90120BDE8F08700BF94F8380075
:10361000012801D10220F6E7012084F8380000BF1C
:103620000020E06394F83900122803D1322084F896
:10363000390002E0222084F83900A685E68535E0CD
:10364000E08D401EE085A068B0F5805F18D14B4644
:1036500000222021204606F07BF808B10320D2E7A3
:103660002F46206930B920684068C0F308003880D0
:10367000AD1C1BE020684068C0B238806D1C15E0AE
:103680004B4600222021204606F062F808B10320B4
:10369000B9E7206920B92068406805F8010B05E00A
:1036A0002068406800F07F0005F8010BE08D0028DD
:1036B000C6DC94F83900322803D1122084F839008E
:1036C00002E0012084F8390000BF002084F83800AF
:1036D00000BF98E7022096E730B50346002493F830
:1036E0003940012C01D0122C37D101B10AB9012087
:1036F00030BD00BF93F83800012801D10220F7E760
:10370000012083F8380000BF99629A85DA8500208D
:10371000D86393F83900122803D1322083F8390096
:1037200002E0222083F839001868C06840F48070F5
:103730001D68E8601868406940F001001D68686114
:1037400000BF002083F8380000BF1868C06840F050
:1037500020001D68E8600020CAE70220C8E70000DA
:103760001D4A0168914236D11C49098801F4004183
:1037700089BB1A49098801F4804171B11849097857
:103780000A2903D00021154A118024E01349098831
:1037900041F40041114A11801DE0114909780D29B9
:1037A00006D10E49098841F480410C4A118012E08B
:1037B0000B490978094A1288C2F30D02094B995442
:1037C00006490988491C054A118011460988C729FC
:1037D00001DD002111807047001001402000002011
:1037E0002200002094000020704700BFFEE7000088
:1037F00010B500200F4908600F48006820F44060B1
:103800000D4908600846006840F4806008600020A8
:103810000A49C1F89402022006F0A6FC01200549DD
:103820000860022006F0A0FC00200449C1F89002C4
:1038300010BD000090824342001C024000804342C1
:1038400000B587B000BF002001901048006840F02C
:1038500080000E4908600846006800F08000019072
:1038600000BF00BF3020029001200390049002208E
:10387000059002A90648FEF755FA0120054908609F
:103880000549C1F8900207B000BD00003038024081
:10389000001C0240948243420080434210B5002045
:1038A0000F4908600F48006820F440600D49086027
:1038B0000846006840F48060086001200A49C1F8A9
:1038C0009402022006F050FC012005490860022005
:1038D00006F04AFC00200449C1F8900210BD000027
:1038E00090824342001C02400080434270B505466E
:1038F00000241648006820F4406014490860084617
:1039000000680860002616E00020114908600220C7
:1039100006F02AFC01200F49C1F890026006040E4F
:103920000B487C38006808B1601CC4B2012006F066
:103930001BFC701CC6B2082EE6DB15B9FFF7AEFF04
:1039400001E0FFF755FF204670BD0000001C02405B
:10395000908243420080434270B504461548006897
:1039600020F44060134908600846006840F4806015
:103970000860002010490860002517E0E0090E49A2
:10398000091D08606006040E022006F0EDFB012010
:103990000A49C1F89002022006F0E6FB0020064921
:1039A0000860022006F0E0FB681CC5B2082DE5DBCC
:1039B00070BD0000001C02409082434200804342E0
:1039C00010B50F48006820F440600D4908600846B3
:1039D000006840F48060086001200A4908600A49D4
:1039E000C1F89002042006F0BFFB002005490860E2
:1039F000042006F0B9FB00200349C1F8900210BD75
:103A0000001C0240948243420080434210B50F489C
:103A1000006820F440600D4908600846006840F4E2
:103A20008060086000200A4908600A49C1F89402D1
:103A3000042006F099FB012005490860042006F0E7
:103A400093FB01200349C1F8940210BD001C024001
:103A5000908243420080434210B50024134800681E
:103A600020F44060114908600846006808600120A1
:103A70000F49086006F078FB01200E49C1F890025A
:103A800006F072FB07E0601CC4B2FA2C03DDFFF7FE
:103A9000BDFF012010BD0648803800680028F2D123
:103AA0000349091F086000BFF4E70000001C024042
:103AB000948243420080434200B587B000BF00209B
:103AC00001902648006840F001002449086008463B
:103AD000006800F00100019000BF00BF00BF00209F
:103AE00001900846006840F004000860084600683D
:103AF00000F00400019000BF00BF00BF0020019053
:103B00000846006840F0800008600846006800F041
:103B10008000019000BF00BF0120029000200390B0
:103B2000022004900320059002A90D48FEF7FAF840
:103B30004FF40050029000200390012004900320D5
:103B4000059002A90748FEF7EDF80C20029002A9A3
:103B50000548FEF7E7F807B000BD00003038024026
:103B60000000024000080240001C024070B50446FC
:103B700000260D4805880D48006818B1204603F05E
:103B800047FC0FE00848408845430021084603F001
:103B900033FA03F0FDFB002602E005490C80761C99
:103BA000AE42FAD370BD00006C0200206403002016
:103BB0000000086010B504466048847160480068E1
:103BC00050B1204603F04AFC5D48C08A5B4908803A
:103BD0005B48008B488010BD002C58D1F02057491D
:103BE00008804FF4A07048800846808845F2105144
:103BF000884210D14FF43050504908814FF428507A
:103C000048814FF42C5088814FF4F07008804FF4B5
:103C1000487048801AE04948808841F6631188421C
:103C20000DD12C20454908812B2048812A208881EC
:103C30004FF4F07008804FF44870488006E02C2064
:103C40003E4908812A2048812B2088813B48808872
:103C500045F21031884205D03848808847F2967185
:103C6000884206D14FF4A070344908804FF4F070B8
:103C700048803248808849F60601884258D14FF47E
:103C8000F0702E4908804FF44870488050E04FF49F
:103C9000A0702A490880F02048800846808845F2B4
:103CA0001051884210D14FF43050244908814FF40C
:103CB000285048814FF42C5088814FF44870088078
:103CC0004FF4F070488020E01C48808841F6631172
:103CD000884205D01948808849F6060188420DD1EE
:103CE0002C20164908812A2048812B2088814FF4F6
:103CF000487008804FF4F070488006E02C200F498F
:103D000008812A2048812B2088810C48808845F230
:103D10001031884205D00948808847F29671884260
:103D200006D14FF4F070054908804FF4A070488028
:103D3000002003F043F800BF4DE700006C020020B4
:103D4000640300202DE9FF4F85B081468A4600209C
:103D5000049003900798A0EB09050898A0EB0A06C9
:103D6000CDF80890CDF804A0002D01DD012705E075
:103D70000DB9002702E04FF0FF376D42002E02DD43
:103D80004FF0010806E016B94FF0000802E04FF0CE
:103D9000FF387642B54201DD2C4600E034464FF054
:103DA000000B21E0019A91B2029A90B200F022F841
:103DB0000498284404900398304403900498A04247
:103DC00005DD0498001B0490029838440290039883
:103DD000A04205DD0398001B039001984044019028
:103DE0000BF101001FFA80FB601C8345DADD09B08E
:103DF000BDE8F08F70B504460D460A48006830B142
:103E0000094829460268204603F03EFB09E029469E
:103E1000204603F0F1F803F0BBFA03480088034999
:103E2000088070BD640300202800002000000860A6
:103E30002DE9F04104460D4616461F462B463246F4
:103E400029462046FFF77EFF3B462246294620466C
:103E5000FFF778FF3B46324639462046FFF772FFB0
:103E60003B46324629463046FFF76CFFBDE8F081FD
:103E70002DE9F04706460F469046002445460320AC
:103E8000A0EB48093CE07A1B91B2321990B2FFF7DF
:103E9000B1FF3A1B91B2721990B2FFF7ABFF3A191A
:103EA00091B2721990B2FFF7A5FF7A1991B2321947
:103EB00090B2FFF79FFF7A1991B2321B90B2FFF7D1
:103EC00099FF3A1991B2721B90B2FFF793FF7A1BD8
:103ED00091B2321B90B2FFF78DFF3A1B91B2721B69
:103EE00090B2FFF787FF641CB9F1000F03DAA0005E
:103EF000801D814404E0601B80000A3081446D1EF7
:103F0000AC42C0DDBDE8F08770B504460D461646EC
:103F10003D48006828B132462946204603F0B4FAED
:103F200070BD3A48808845F21051884220D1374907
:103F3000488903F021FA201203F012FA3349498923
:103F4000491C88B203F018FAE0B203F009FA2F49CD
:103F5000888903F011FA281203F002FA2B498989A3
:103F6000491C88B203F008FAE8B203F0F9F942E01C
:103F70002648808841F66311884228D123488079F9
:103F800020B922480088401E001B84B21F4948897E
:103F900003F0F2F9201203F0E3F9E0B203F0E0F9E4
:103FA000201203F0DDF9E0B203F0DAF9174988894D
:103FB00003F0E2F9281203F0D3F9E8B203F0D0F9E4
:103FC000281203F0CDF9E8B203F0CAF913E00F4963
:103FD000488903F0D1F9201203F0C2F9E0B203F0EE
:103FE000BFF90A49888903F0C7F9281203F0B8F924
:103FF000E8B203F0B5F90548008905490880891C35
:104000000E8000BF8CE70000640300206C020020DB
:10401000FEFF07602DE9F84F05460E461746984605
:10402000DDF828904FF0000B1448006840B143467B
:104030003A4631462846CDF8009003F04DFA1BE091
:10404000781B401C1FFA80FB344613E021462846AB
:1040500002F0D2FF03F09CF94FF0000A06E0084995
:10406000A1F800900AF101001FFA80FADA45F6DBA8
:10407000601C84B24445E9DDBDE8F88F640300208C
:1040800000000860034A12880280034A12880A80EE
:1040900070470000300000203200002000B595B0CD
:1040A00003F074FCFE4988800846808818B103F04C
:1040B000C5FA02F0E3BD00BF00200190F948006896
:1040C00040F00200F74908600846006800F002006E
:1040D000019000BF00BF202010900120119012908D
:1040E0000320139010A9F048FDF71CFE4FF020406C
:1040F000EE490860EE484860002088600021EB48E7
:10410000C16001611021416100218161C161416291
:104110004FF4805181620021C1624FF480410163FC
:104120000021416381634FF48011C1630F20099026
:1041300000200A9046200B9000200F900F20029044
:10414000002003900F2004900020089002AA09A9E3
:10415000D648FFF776F8322005F0FAFFD32003F0B7
:104160000BF902F0F1FDCE49888002F0EDFDCC495B
:10417000888002F0E9FDCA498880084680884FF6A9
:10418000FF7101EA0020C649888002F0DDFDC449C4
:1041900089880843C24988800846808849F24131AD
:1041A00088427CD0042003F0E7F802F0CDFDBC4942
:1041B000888002F0C9FDBA49888002F0C5FDB8497F
:1041C0008880084680884FF6FF7101EA0020B449D4
:1041D000888002F0B9FDB24989880843B0498880D7
:1041E0000846808848F25251884203D147F28970CC
:1041F000AB498880AA48808847F289718842D0D02C
:10420000D42003F0B9F802F09FFDA549888002F0A0
:104210009BFDA349888002F097FDA149888008464C
:1042200080884FF6FF7101EA00209D49888002F0E6
:104230008BFD9B4989880843994988800846808876
:1042400045F210318842ACD0D32003F095F802F04B
:104250007BFD9349888002F077FD9149888002F0C8
:1042600073FD8F498880084680884FF6FF7101EA08
:1042700000208B49888002F067FD894989880843BE
:10428000874988800846808847F29671884288D09E
:1042900055214FF4704003F085F8AA2100E07EE03C
:1042A0004FF2010003F07EF852214FF2020003F0BA
:1042B00079F808214FF2030003F074F801214FF25E
:1042C000040003F06FF84FF4454003F055F802F096
:1042D0003BFD73498880084680884FF6FF7101EAEC
:1042E00000206F4988804CF2015003F045F802F03D
:1042F0002BFD6B498988084369498880052005F0B2
:1043000027FF6748808845F21051884247D0D32064
:1043100003F032F802F018FD6149888002F014FDC4
:104320005F49888002F010FD5D49888008468088DA
:104330004FF6FF7101EA00205949888002F004FD20
:10434000574989880843564988800846808849F635
:104350000601884223D0A12003F00EF802F0F4FCFD
:104360004F49888002F0F0FC4D49888008468088DB
:104370004FF6FF7101EA00204949888002F0E4FC11
:10438000474989880843464988800846808845F21D
:104390006171884203D141F66310414988804048E9
:1043A000818844A0FBF77EFF3D48808849F2413177
:1043B000884273D1CF2002F0DFFF002002F0D0FF4F
:1043C000C12002F0CDFF302002F0CAFFED2002F044
:1043D000D3FF642002F0C4FF032002F0C1FF1220CB
:1043E00002F0BEFF812002F0BBFFE82002F0C4FF14
:1043F000852002F0B5FF102002F0B2FF7A2002F013
:10440000AFFFCB2002F0B8FF392002F0A9FF2C202B
:1044100002F0A6FF002002F0A3FF342002F0A0FF6C
:10442000022002F09DFFF72002F0A6FF202002F0FC
:1044300097FFEA2002F0A0FF002002F091FF002089
:1044400002F08EFFC02002F097FF1B2002F088FFD1
:10445000C12002F091FF012002F082FFC52002F08E
:104460008BFF302002F07CFF302002F079FFC72064
:1044700002F082FFB72002F073FF362002F07CFFCB
:10448000482002F06DFF3A2002F076FF552002F03E
:1044900067FFB12002F070FF002013E0B4E00000DD
:1044A0006C02002030380240000402401C02002050
:1044B000040100A0204C43442049443A25780D0AC9
:1044C0000000000002F04CFF1A2002F049FFB62065
:1044D00002F052FF0A2002F043FFA22002F040FF48
:1044E000F22002F049FF002002F03AFF262002F0FD
:1044F00043FF012002F034FFE02002F03DFF0F20D7
:1045000002F02EFF2A2002F02BFF282002F028FFC5
:10451000082002F025FF0E2002F022FF082002F002
:104520001FFF542002F01CFFA92002F019FF4320B6
:1045300002F016FF0A2002F013FF0F2002F010FF16
:10454000002002F00DFF002002F00AFF002002F020
:1045500007FF002002F004FFE12002F00DFF002021
:1045600002F0FEFE152002F0FBFE172002F0F8FE1E
:10457000072002F0F5FE112002F0F2FE062002F004
:10458000EFFE2B2002F0ECFE562002F0E9FE3C206C
:1045900002F0E6FE052002F0E3FE102002F0E0FE4D
:1045A0000F2002F0DDFE3F2002F0DAFE3F2002F095
:1045B000D7FE0F2002F0D4FE2B2002F0DDFE0020FB
:1045C00002F0CEFE002002F0CBFE012002F0C8FE79
:1045D0003F2002F0C5FE2A2002F0CEFE002002F0AD
:1045E000BFFE002002F0BCFE002002F0B9FEEF206A
:1045F00002F0B6FE112002F0BFFE782005F0A8FD03
:10460000292002F0B9FE54E5FE48808847F28971FE
:1046100088427CD1112002F0AFFE782005F098FD91
:10462000362002F0A9FE002002F09AFE3A2002F0A5
:10463000A3FE052002F094FEB22002F09DFE0C20A5
:1046400002F08EFE0C2002F08BFE002002F088FEAD
:10465000332002F085FE332002F082FEB72002F004
:104660008BFE352002F07CFEBB2002F085FE32205E
:1046700002F076FEC02002F07FFE0C2002F070FEF9
:10468000C22002F079FE012002F06AFEC32002F08F
:1046900073FE102002F064FEC42002F06DFE2020A4
:1046A00002F05EFEC62002F067FE0F2002F058FE08
:1046B000D02002F061FEA42002F052FEA12002F000
:1046C0004FFEE02002F058FED02002F049FE00200C
:1046D00002F046FE022002F043FE072002F040FEF8
:1046E0000A2002F03DFE282002F03AFE322002F0BD
:1046F00037FE442002F034FE422002F031FE062054
:1047000002F02EFE0E2002F02BFE122000E056E0FA
:1047100002F026FE142002F023FE172002F020FEF5
:10472000E12002F029FED02002F01AFE002002F063
:1047300017FE022002F014FE072002F011FE0A20EC
:1047400002F00EFE282002F00BFE312002F008FEDF
:10475000542002F005FE472002F002FE0E2002F077
:10476000FFFD1C2002F0FCFD172002F0F9FD1B20CC
:1047700002F0F6FD1E2002F0F3FD2A2002F0FCFDFF
:10478000002002F0EDFD002002F0EAFD002002F022
:10479000E7FDEF2002F0E4FD2B2002F0EDFD00200C
:1047A00002F0DEFD002002F0DBFD012002F0D8FD6A
:1047B0003F2002F0D5FD292002F0DEFD79E491488A
:1047C000808845F21031884240F07C87ED2002F06D
:1047D000D3FD012002F0C4FDFE2002F0C1FDEE2059
:1047E00002F0CAFDDE2002F0BBFD212002F0B8FD80
:1047F000F12002F0C1FD012002F0B2FDDF2002F045
:10480000BBFD102002F0ACFDC42002F0B5FD8F20EE
:1048100002F0A6FDC62002F0AFFD002002F0A0FDD0
:10482000E22002F09DFDE22002F09AFDE22002F07B
:1048300097FDBF2002F0A0FDAA2002F091FDB0205C
:1048400002F09AFD0D2002F08BFD002002F088FDA1
:104850000D2002F085FD002002F082FD112002F003
:104860007FFD002002F07CFD192002F079FD002080
:1048700002F076FD212002F073FD002002F070FDB1
:104880002D2002F06DFD002002F06AFD3D2002F0B7
:1048900067FD002002F064FD5D2002F061FD002054
:1048A00002F05EFD5D2002F05BFD002002F058FD8D
:1048B000B12002F061FD802002F052FD002002F0E4
:1048C0004FFD8B2002F04CFD002002F049FD9620A8
:1048D00002F046FD002002F043FDB22002F04CFD44
:1048E000002002F03DFD002002F03AFD022002F01F
:1048F00037FD002002F034FD032002F031FD0020DE
:1049000002F02EFDB32002F037FD002002F028FD5A
:10491000002002F025FD002002F022FD002002F020
:104920001FFD002002F01CFD002002F019FD0020F8
:1049300002F016FD002002F013FD002002F010FD31
:10494000002002F00DFD002002F00AFD002002F020
:1049500007FD002002F004FD002002F001FD002010
:1049600002F0FEFC002002F0FBFC002002F0F8FC4C
:10497000002002F0F5FC002002F0F2FC002002F022
:10498000EFFC002002F0ECFC002002F0E9FC00202B
:1049900002F0E6FC002002F0E3FCB42002F0ECFCA4
:1049A0008B2002F0DDFC002002F0DAFC962002F001
:1049B000D7FC002002F0D4FCA12002F0D1FC0020A2
:1049C00002F0CEFCB52002F0D7FC022002F0C8FCB9
:1049D000002002F0C5FC032002F0C2FC002002F01F
:1049E000BFFC042002F0BCFC002002F0B9FCB620A1
:1049F00002F0C2FC002002F0B3FC002002F0B0FC88
:104A0000B72001E06C02002002F0B6FC002002F0AA
:104A1000A7FC002002F0A4FC3F2002F0A1FC002033
:104A200002F09EFC5E2002F09BFC002002F098FC4D
:104A3000642002F095FC002002F092FC8C2002F031
:104A40008FFC002002F08CFCAC2002F089FC0020DE
:104A500002F086FCDC2002F083FC002002F080FCE7
:104A6000702002F07DFC002002F07AFC902002F021
:104A700077FC002002F074FCEB2002F071FC0020B7
:104A800002F06EFCDC2002F06BFC002002F068FCFF
:104A9000B82002F071FC002002F062FC002002F05D
:104AA0005FFC002002F05CFC002002F059FC0020BA
:104AB00002F056FC002002F053FC002002F050FCF3
:104AC000002002F04DFCBA2002F056FC242002F037
:104AD00047FC002002F044FC002002F041FC0020D2
:104AE00002F03EFCC12002F047FC202002F038FC1E
:104AF000002002F035FC542002F032FC002002F0CD
:104B00002FFCFF2002F02CFC002002F029FCC22028
:104B100002F032FC0A2002F023FC002002F020FC0C
:104B2000042002F01DFC002002F01AFCC32002F059
:104B300023FC3C2002F014FC002002F011FC3A207F
:104B400002F00EFC002002F00BFC392002F008FC01
:104B5000002002F005FC372002F002FC002002F0E9
:104B6000FFFB3C2002F0FCFB002002F0F9FB3620AA
:104B700002F0F6FB002002F0F3FB322002F0F0FB23
:104B8000002002F0EDFB2F2002F0EAFB002002F0F3
:104B9000E7FB2C2002F0E4FB002002F0E1FB2920DF
:104BA00002F0DEFB002002F0DBFB262002F0D8FB47
:104BB000002002F0D5FB242002F0D2FB002002F0FE
:104BC000CFFB242002F0CCFB002002F0C9FB232005
:104BD00002F0C6FB002002F0C3FB3C2002F0C0FB49
:104BE000002002F0BDFB362002F0BAFB002002F0EC
:104BF000B7FB322002F0B4FB002002F0B1FB2F2003
:104C000002F0AEFB002002F0ABFB2C2002F0A8FB70
:104C1000002002F0A5FB292002F0A2FB002002F0F8
:104C20009FFB262002F09CFB002002F099FB242031
:104C300002F096FB002002F093FB242002F090FB90
:104C4000002002F08DFB232002F08AFB002002F0FE
:104C500087FBC42002F090FB622002F081FB002061
:104C600002F07EFB052002F07BFB002002F078FBC7
:104C7000842002F075FB002002F072FBF02002F0AD
:104C80006FFB002002F06CFB182002F069FB002093
:104C900002F066FBA42002F063FB002002F060FB40
:104CA000182002F05DFB002002F05AFB502002F0B9
:104CB00057FB002002F054FB0C2002F051FB0020B7
:104CC00002F04EFB172002F04BFB002002F048FBE5
:104CD000952002F045FB002002F042FBF32002F099
:104CE0003FFB002002F03CFBE62002F039FB0020F5
:104CF00002F036FBC52002F03FFB322002F030FB11
:104D0000002002F02DFB442002F02AFB002002F0DC
:104D100027FB652002F024FB002002F021FB762017
:104D200002F01EFB002002F01BFB882002F018FBA3
:104D3000002002F015FBC62002F01EFB202002F02E
:104D40000FFB002002F00CFB172002F009FB0020F3
:104D500002F006FB012002F003FB002002F000FB42
:104D6000C72002F009FB002002F0FAFA002002F04E
:104D7000F7FA002002F0F4FA002002F0F1FAC8205D
:104D800002F0FAFA002002F0EBFA002002F0E8FA52
:104D9000002002F0E5FA002002F0E2FAC92002F059
:104DA000EBFA002002F0DCFA002002F0D9FA002031
:104DB00002F0D6FA002002F0D3FA002002F0D0FA76
:104DC000002002F0CDFA002002F0CAFA002002F022
:104DD000C7FA002002F0C4FA002002F0C1FA002055
:104DE00002F0BEFA002002F0BBFA002002F0B8FA8E
:104DF000002002F0B5FA002002F0B2FA002002F022
:104E0000AFFAE02002F0B8FA162002F0A9FA00206A
:104E100002F0A6FA1C2002F0A3FA002002F0A0FA89
:104E2000212002F09DFA002002F09AFA362002F0CA
:104E300097FA002002F094FA462002F091FA00203E
:104E400002F08EFA522002F08BFA002002F088FA6B
:104E5000642002F085FA002002F082FA7A2002F043
:104E60007FFA002002F07CFA8B2002F079FA002011
:104E700002F076FA992002F073FA002002F070FA3C
:104E8000A82002F06DFA002002F06AFAB92002F0C0
:104E900067FA002002F064FAC42002F061FA0020F0
:104EA00002F05EFACA2002F05BFA002002F058FA23
:104EB000D22002F055FA002002F052FAD92002F076
:104EC0004FFA002002F04CFAE02002F049FA0020EC
:104ED00002F046FAF32002F043FA002002F040FA12
:104EE000E12002F049FA162002F03AFA002002F01E
:104EF00037FA1C2002F034FA002002F031FA2220A6
:104F000002F02EFA002002F02BFA362002F028FAE6
:104F1000002002F025FA452002F022FA002002F0DB
:104F20001FFA522002F01CFA002002F019FA642045
:104F300002F016FA002002F013FA7A2002F010FABA
:104F4000002002F00DFA8B2002F00AFA002002F095
:104F500007FA992002F004FA002002F001FAA820D2
:104F600002F0FEF9002002F0FBF9B92002F0F8F996
:104F7000002002F0F5F9C42002F0F2F9002002F05E
:104F8000EFF9CA2002F0ECF9002002F0E9F9D22092
:104F900002F0E6F9002002F0E3F9D82002F0E0F98F
:104FA000002002F0DDF9E02002F0DAF9002002F042
:104FB000D7F9F32002F0D4F9002002F0D1F9E22071
:104FC00002F0DAF9052002F0CBF9002002F0C8F96E
:104FD0000B2002F0C5F9002002F0C2F91B2002F0FC
:104FE000BFF9002002F0BCF9342002F0B9F900202A
:104FF00002F0B6F9442002F0B3F9002002F0B0F953
:105000004F2002F0ADF9002002F0AAF9612002F071
:10501000A7F9002002F0A4F9792002F0A1F90020FC
:1050200002F09EF9882002F09BF9002002F098F926
:10503000972002F095F9002002F092F9A62002F0E4
:105040008FF9002002F08CF9B72002F089F90020D6
:1050500002F086F9C22002F083F9002002F080F904
:10506000C72002F07DF9002002F07AF9D12002F089
:1050700077F9002002F074F9D62002F071F90020CF
:1050800002F06EF9DD2002F06BF9002002F068F901
:10509000F32002F065F9002002F062F9E32002F04B
:1050A0006BF9052002F05CF9002002F059F90A20A2
:1050B00002F056F9002002F053F91C2002F050F9DA
:1050C000002002F04DF9332002F04AF9002002F0EE
:1050D00047F9442002F044F9002002F041F9502041
:1050E00002F03EF9002002F03BF9622002F038F9AC
:1050F000002002F035F9782002F032F9002002F0A9
:105100002FF9882002F02CF9002002F029F99720CD
:1051100002F026F9002002F023F9A62002F020F97F
:10512000002002F01DF9B72002F01AF9002002F069
:1051300017F9C22002F014F9002002F011F9C7207B
:1051400002F00EF9002002F00BF9D12002F008F96C
:10515000002002F005F9D52002F002F9002002F04B
:10516000FFF8DD2002F0FCF8002002F0F9F8F3204F
:1051700002F0F6F8002002F0F3F8E42002F0FCF868
:10518000012002F0EDF8002002F0EAF8012002F020
:10519000E7F8002002F0E4F8022002F0E1F8002035
:1051A00002F0DEF82A2002F0DBF8002002F0D8F846
:1051B0003C2002F0D5F8002002F0D2F84B2002F09B
:1051C000CFF8002002F0CCF85D2002F0C9F80020F2
:1051D00002F0C6F8742002F0C3F8002002F0C0F814
:1051E000842002F0BDF8002002F0BAF8932002F00B
:1051F000B7F8002002F0B4F8A22002F0B1F80020C5
:1052000002F0AEF8B32002F0ABF8002002F0A8F8EC
:10521000BE2002F0A5F8002002F0A2F8C42002F09F
:105220009FF8002002F09CF8CD2002F099F80020B1
:1052300002F096F8D32002F093F8002002F090F8E4
:10524000DD2002F08DF8002002F08AF8F32002F051
:1052500087F8002002F084F8E52002F08DF80020A5
:1052600002F07EF8002002F07BF8002002F078F8CF
:10527000002002F075F8022002F072F8002002F01F
:105280006FF8292002F06CF8002002F069F83C2049
:1052900002F066F8002002F063F84B2002F060F89C
:1052A000002002F05DF85D2002F05AF8002002F0C4
:1052B00057F8742002F054F8002002F051F88420CE
:1052C00002F04EF8002002F04BF8932002F048F86C
:1052D000002002F045F8A22002F042F8002002F07F
:1052E0003FF8B32002F03CF8002002F039F8BE206D
:1052F00002F036F8002002F033F8C42002F030F853
:10530000002002F02DF8CD2002F02AF8002002F053
:1053100027F8D32002F024F8002002F021F8DC2046
:1053200002F01EF8002002F01BF8F32002F018F83B
:10533000002002F015F8E62002F01EF8112002F01D
:105340000FF8002002F00CF8342002F009F80020D9
:1053500002F006F8562002F003F8002002F000F8F0
:10536000762001F0FDFF002001F0FAFF772001F028
:10537000F7FF002001F0F4FF662001F0F1FF0020AC
:1053800001F0EEFF882001F0EBFF002001F0E8FFC4
:10539000992001F0E5FF002001F0E2FFBB2001F0C1
:1053A000DFFF002001F0DCFF992001F0D9FF002091
:1053B00001F0D6FF662001F0D3FF002001F0D0FFFE
:1053C000552001F0CDFF002001F0CAFF552001F06B
:1053D000C7FF002001F0C4FF452001F0C1FF0020FD
:1053E00001F0BEFF432001F0BBFF002001F0B8FF39
:1053F000442001F0B5FF002001F0B2FFE72001F0EA
:10540000BBFF322001F0ACFF002001F0A9FF5520C6
:1054100001F0A6FF002001F0A3FF762001F0A0FF1D
:10542000002001F09DFF662001F09AFF002001F0AE
:1054300097FF672001F094FF002001F091FF6720A3
:1054400001F08EFF002001F08BFF872001F088FF24
:10545000002001F085FF992001F082FF002001F07B
:105460007FFFBB2001F07CFF002001F079FF992035
:1054700001F076FF002001F073FF772001F070FF4C
:10548000002001F06DFF442001F06AFF002001F0D0
:1054900067FF562001F064FF002001F061FF232028
:1054A00001F05EFF002001F05BFF332001F058FFA8
:1054B000002001F055FF452001F052FF002001F0CF
:1054C0004FFFE82001F058FF002001F049FF0020C5
:1054D00001F046FF992001F043FF002001F040FF5A
:1054E000872001F03DFF002001F03AFF882001F005
:1054F00037FF002001F034FF772001F031FF00205A
:1055000001F02EFF662001F02BFF002001F028FFA4
:10551000882001F025FF002001F022FFAA2001F0E1
:105520001FFF002001F01CFFBB2001F019FF00202D
:1055300001F016FF992001F013FF002001F010FF89
:10554000662001F00DFF002001F00AFF552001F058
:1055500007FF002001F004FF552001F001FF0020AB
:1055600001F0FEFE442001F0FBFE002001F0F8FEF9
:10557000442001F0F5FE002001F0F2FE552001F07C
:10558000EFFE002001F0ECFEE92001F0F5FEAA207C
:1055900001F0E6FE002001F0E3FE002001F0E0FE55
:1055A000002001F0DDFE002001F0E6FEAA2001F05F
:1055B000D7FECF2001F0E0FE002001F0D1FE002058
:1055C00001F0CEFE002001F0CBFE002001F0C8FE6D
:1055D000002001F0C5FE002001F0C2FE002001F015
:1055E000BFFE002001F0BCFE002001F0B9FE00204B
:1055F00001F0B6FE002001F0B3FE002001F0B0FE85
:10560000002001F0ADFE002001F0AAFE002001F014
:10561000A7FE002001F0A4FE002001F0A1FEF02072
:1056200001F0AAFE002001F09BFE502001F098FE40
:10563000002001F095FE002001F092FE002001F014
:105640008FFEF32001F098FE002001F089FEF92082
:1056500001F092FE062001F083FE102001F080FE92
:10566000292001F07DFE002001F07AFE3A2001F0B1
:1056700083FE552001F074FE112001F07DFE6420B0
:1056800004F066FD292001F077FE352001F074FE5C
:10569000002001F065FE512001F06EFEFF2001F0B8
:1056A0005FFE532001F068FE2C2001F059FE5520CA
:1056B00001F062FE822001F053FE2C2001F05CFE1E
:1056C00001F0DCBAFE48808845F2105188427DD155
:1056D00055214FF4704001F065FEAA214FF2010000
:1056E00001F060FE52214FF2020001F05BFE082142
:1056F0004FF2030001F056FE01214FF2040001F0C9
:1057000051FE0D214FF4304001F04CFE0D214BF2C3
:10571000010001F047FE0D214BF2020001F042FEB4
:1057200034214FF4364001F03DFE34214BF201604C
:1057300001F038FE34214BF2026001F033FE0D21FE
:105740004FF4314001F02EFE0D214BF2011001F01B
:1057500029FE0D214BF2021001F024FE34214FF4FA
:10576000374001F01FFE34214BF2017001F01AFEA8
:1057700034214BF2027001F015FE00214FF432404B
:1057800001F010FE00214BF2012001F00BFE002180
:105790004BF2022001F006FE24214FF4384001F0C4
:1057A00001FE24214BF6010001F0FCFD24214BF603
:1057B000020001F0F7FD01214FF43F4001F0F2FD3E
:1057C0000F214FF4334001F0EDFD00E0FDE30F2128
:1057D0004BF2013001F0E6FD0F214BF2023001F0F7
:1057E000E1FD34214FF4394001F0DCFD34214BF66A
:1057F000011001F0D7FD34214BF6021001F0D2FD6B
:1058000008214FF4354001F0CDFD08214BF2015045
:1058100001F0C8FD08214BF2025001F0C3FD032145
:105820004FF4424001F0BEFD24214FF43A4001F014
:10583000B9FD24214BF6012001F0B4FD24214BF6E3
:10584000022001F0AFFD00214FF43C4001F0AAFD21
:1058500078214BF6014001F0A5FD00214BF60240F6
:1058600001F0A0FD00214FF43D4001F09BFD7821A7
:105870004BF6015001F096FD00214BF6025001F06D
:1058800091FD00214FF43E4001F08CFD64214BF668
:10589000016001F087FD00214FF4514001F082FDCD
:1058A00033214DF2011001F07DFD00214DF2021077
:1058B00001F078FD34214DF2031001F073FD002159
:1058C0004DF2041001F06EFD3A214DF2051001F089
:1058D00069FD00214DF2061001F064FD4A214DF2F0
:1058E000071001F05FFD00214DF2081001F05AFD94
:1058F0005C214DF2091001F055FD00214DF20A1016
:1059000001F050FD81214DF20B1001F04BFD002103
:105910004DF20C1001F046FDA6214DF20D1001F0E4
:1059200041FD00214DF20E1001F03CFDE5214DF24C
:105930000F1001F037FD01214DF2101001F032FD82
:1059400013214DF2111001F02DFD01214DF2121025
:1059500001F028FD54214DF2131001F023FD012127
:105960004DF2141001F01EFD82214DF2151001F0D0
:1059700019FD01214DF2161001F014FDCA214DF25E
:10598000171001F00FFD02214DF2181001F00AFD71
:1059900000214DF2191001F005FD02214DF21A10FF
:1059A00001F000FD01214DF21B1001F0FBFC022172
:1059B0004DF21C1001F0F6FC34214DF21D1001F0E7
:1059C000F1FC02214DF21E1001F0ECFC67214DF2BA
:1059D0001F1001F0E7FC02214DF2201001F0E2FC63
:1059E00084214DF2211001F0DDFC02214DF2221044
:1059F00001F0D8FCA4214DF2231001F0D3FC0221C8
:105A00004DF2241001F0CEFCB7214DF2251001F02B
:105A1000C9FC02214DF2261001F0C4FCCF214DF249
:105A2000271001F0BFFC02214DF2281001F0BAFC52
:105A3000DE214DF2291001F0B5FC02214DF22A10B1
:105A400001F0B0FCF2214DF22B1001F0ABFC022171
:105A50004DF22C1001F0A6FCFE214DF22D1001F0AC
:105A6000A1FC03214DF22E1001F09CFC10214DF2FF
:105A70002F1001F097FC03214DF2301001F092FC41
:105A800033214DF2311001F08DFC03214DF2321023
:105A900001F088FC6D214DF2331001F083FC0021F0
:105AA0004FF4524001F07EFC33214DF2012001F011
:105AB00079FC00214DF2022001F074FC342101E058
:105AC0006C0200204DF2032001F06CFC00214DF22D
:105AD000042001F067FC3A214DF2052001F062FC40
