:020000040800F2
:10000000100800204D020008030D0008FF0C000836
:10001000010D0008FD020008251000080000000086
:10002000000000000000000000000000270D000894
:10003000FF02000800000000250D0008AD0D0008BB
:1000400067020008670200086702000867020008EC
:1000500067020008670200086702000867020008DC
:1000600067020008670200086702000867020008CC
:1000700067020008670200086702000867020008BC
:1000800067020008670200086702000867020008AC
:10009000670200086702000867020008670200089C
:1000A000670200086702000867020008670200088C
:1000B000670200086702000867020008670200087C
:1000C000670200086702000867020008670200086C
:1000D00067020008A50F0008E90F00086702000882
:1000E000670200086702000867020008670200084C
:1000F000670200086702000867020008670200083C
:10010000670200086702000867020008670200082B
:10011000670200086702000867020008670200081B
:10012000670200086702000867020008670200080B
:1001300067020008670200086702000867020008FB
:1001400067020008670200086702000867020008EB
:1001500067020008670200086702000867020008DB
:1001600067020008670200086702000867020008CB
:10017000670200086702000867020008000000002C
:1001800067020008670200086702000867020008AB
:10019000670200086702000867020008670200089B
:1001A00067020008670200086702000800F002F812
:1001B00000F03CF80AA090E8000C82448344AAF1C5
:1001C0000107DA4501D100F031F8AFF2090EBAE8C3
:1001D0000F0013F0010F18BFFB1A43F0010318477B
:1001E000900E0000B00E0000103A24BF78C878C10D
:1001F000FAD8520724BF30C830C144BF04680C602D
:10020000704700000023002400250026103A28BF74
:1002100078C1FBD8520728BF30C148BF0B60704778
:100220001FB500F018FF1FBD10B510BD00F038F865
:100230001146FFF7F5FF00F001FF00F056F803B498
:10024000FFF7F2FF03BC00F0EEFE00000948804714
:1002500009480047FEE7FEE7FEE7FEE7FEE7FEE7A8
:10026000FEE7FEE7FEE7FEE704480549054A064BC0
:1002700070470000B10D0008AD0100081002002019
:100280001008002010040020100400207047704760
:10029000704770477047000000487047AC0100206D
:1002A0007546FFF7F9FFAE4605006946534620F054
:1002B0000700854618B020B5FFF7D6FFBDE82040FF
:1002C0004FF000064FF000074FF000084FF0000B12
:1002D00021F00701AC46ACE8C009ACE8C009ACE8C5
:1002E000C009ACE8C0098D46704710B50446AFF3AD
:1002F00000802046BDE81040FFF7A1BFFEE7704731
:10030000014800687047000014000020024801689E
:10031000491C016070470000140000200B4810B514
:10032000016841F400710160016841F4806101607D
:10033000016841F480710160052000F03FF80F2052
:1003400000F006F800F015F8002010BD003C024057
:1003500010B5044600F08CF94FF47A71B0FBF1F05F
:1003600000F074FB00222146501E00F007F8002028
:1003700010BD08B50020009008BD0000F0B40E4B81
:100380001B68C3F30223C3F10704042C00D904241F
:100390001D1D072D01D2002300E0DB1E012606FAF9
:1003A00004F56D1E0D409D409E40761E164045EAA8
:1003B0000601F0BC00F0A6BC0CED00E0064A00F01F
:1003C000070110684FF6FF03184040EA0120034977
:1003D00008431060704700000CED00E00000FA05D3
:1003E0002DE9F8431D48016841F080510160006823
:1003F000012700F080500090380490FAA0F0DFF858
:100400006080B0FA80F048F82070FFF779FF04466A
:100410004FF47A75134E04E0FFF772FF001BA842F9
:1004200013D87068C003F7D54FF4003090FAA0F0ED
:10043000B0FA80F048F82070FFF762FF044607E04A
:10044000FFF75EFF001BA84202D90320BDE8F88336
:1004500070688003F4D50020F8E7000040380240BF
:1004600000000E42007000402DE9F05FDFF8F8A1B7
:1004700004460F46DAF80000DFF8F08100F00F02C2
:10048000C8B27A49814641F2883608F10808BA4272
:1004900061D202468AF80020DAF8000000F00F006E
:1004A000B8427DD12078800707D5D8F80020A3680E
:1004B00022F0F0021A43C8F800202078C0072DD09F
:1004C000606801281AD002281BD0032819D00968B7
:1004D0008907002964DAD8F80010474621F00301A3
:1004E0000143C8F80010FFF70BFF054660680128BC
:1004F0000FD0022818D003281CD027E009688903F0
:10050000E7E709688901E4E7FFF7FAFE401BB0421C
:1005100058D83868C0F381000128F5D188E0FFF78A
:10052000EFFE401BB0424DD83868C0F3810002286E
:10053000F5D17DE03868FFF7E3FE401BB042F9D902
:1005400040E0FFF7DDFE401BB0423BD8386810F0BA
:100550000C0FF6D16CE02078800707D5D8F8002082
:10056000A36822F0F0021A43C8F800202078C007E0
:100570004CD06068012828D0022829D0032827D031
:1005800009688907002949DAD8F8002022F0030217
:100590000243C8F80020FFF7B3FE0546606800E09C
:1005A0003CE001281DD0022829D0032838D0B346CA
:1005B0004646306810F00C0F28D0FFF7A1FE411B13
:1005C0005945F6D90320BDE8F09F09688903D9E7AA
:1005D00009688901D6E7FFF793FE411B594502D907
:1005E000F0E7B34646463068C0F381000128F2D1F7
:1005F0000CE0FFF785FE411B594502D9E2E7B346FF
:1006000046463068C0F381000228F2D18AF8009093
:10061000DAF8000000F00F00B84209D00120D2E75C
:1006200044462068FFF76CFE401BB042F9D9C9E789
:100630002078400707D5D8F80010E26821F4E0518F
:100640001143C8F800102078000708D5D8F800102A
:10065000226921F4604141EAC201C8F800100F206C
:10066000FFF776FE0020AEE7003C02400038024073
:1006700010B500F017F808490968F02292FAA2F2C2
:1006800001F0F001B2FA82F2D140044A515CC84054
:100690000349086010BD00000838024060100008DF
:1006A0000000002030B51948006810F00C0118480F
:1006B00012D0184C04290ED008290DD1134A121F4C
:1006C0001168136801F03F015D0247F6C07304D55D
:1006D000B4FBF1F003E0204630BDB0FBF1F011684F
:1006E000194093FAA3F3B3FA83F3D940484311684E
:1006F0004FF4403292FAA2F201F44031B2FA82F29F
:10070000D140491C4900B0FBF1F030BD083802402F
:100710000024F40040787D012DE9F84F044600786C
:10072000DFF8FCA2BF4DC0074FF0000648D0DAF852
:1007300000105046C1F38101012908D00068C0F3C0
:10074000810002280AD1281D0068400206D52868C9
:10075000800335D56068002873D031E0DFF8C4929B
:1007600009F1020989F80060FFF7CAFD074641F266
:10077000883804E0FFF7C4FDC11B41457AD82868DA
:100780008003F7D4207989F80000606860B1FFF732
:10079000B7FD074604E0FFF7B3FDC11B4145EDD8A7
:1007A00028688003F7D50BE0FFF7AAFD074604E0B1
:1007B000FFF7A6FDC11B4145E0D828688003F7D4A8
:1007C0002078DFF86492800744D5DAF800105046AC
:1007D00011F00C0F4FF0F80809D00068C0F3810049
:1007E00002280BD18E48001F0068400206D42868FA
:1007F000800714D5E068012823D110E0E068D0B16B
:100800000120C9F80000FFF77BFD074604E0FFF771
:1008100077FDC01B6428B1D828688007F7D5286801
:1008200098FAA8F22169B2FA82F220F0F800914019
:10083000084328600EE0C9F80060FFF761FD074635
:1008400005E0EAE0FFF75CFDC01B642812D82868C9
:100850008007F7D42078000725D5DFF8C4817348D6
:10086000616908F16C0881B101210160FFF748FD61
:10087000074605E07EE0FFF743FDC01B642879D8FA
:10088000D8F800008007F6D50DE00660FFF738FDC8
:10089000074604E0FFF734FDC01B64286AD8D8F887
:1008A00000008007F6D42078400753D55C483830E4
:1008B000016841F0805101600068DFF8748100F048
:1008C00080500090D8F8001041F48071C8F80010F2
:1008D000FFF716FD074604E0FFF712FDC01B642872
:1008E00048D8D8F80000C005F6D5DFF834B10BF1D0
:1008F000680B8BF80060FFF703FD074641F288386C
:1009000004E0FFF7FDFCC11B41457ED8DBF8000089
:100910008007F6D4207A8BF80000A06868B1FFF752
:10092000EFFC074604E0FFF7EBFCC11B41456CD828
:10093000DBF800008007F6D50CE0FFF7E1FC074686
:1009400004E0FFF7DDFCC11B41455ED8DBF8000089
:100950008007F6D4A069E8B3DAF80010C1F381018A
:1009600002295AD0022806D0C9F86060FFF7C8FCF7
:1009700004464DE049E04F46C9F86060FFF7C0FC0F
:10098000064604E0FFF7BCFC801B64283DD82868BD
:100990008001F7D4D4E90701084347F6C07191FA02
:1009A000A1F1626AB1FA81F18A40A16A4FF0FF3386
:1009B00003EB51014FF4403393FAA3F3B3FA83F3FB
:1009C00099400A4310434FF0706292FAA2F2B2FAD1
:1009D00082F200E01FE0E16A914008431049091FDC
:1009E000086001203866FFF78BFC044604E0FFF73F
:1009F00087FC001B642808D828688001F7D50AE026
:100A0000FFF77EFC001B642802D90320BDE8F88FA5
:100A100028688001F4D40020F8E70120F6E7000000
:100A2000083802400038024000004742800E47422A
:100A3000007000404FF0E0210428086903D020F046
:100A400004000861704740F00400FAE710B5401E4A
:100A5000B0F1807F01D3012010BD4FF0E024606130
:100A60000F21601700F04EF90020A06107202061DF
:100A7000002010BD704790F83900704738B5016804
:100A800004460868CA68C0F3000002F4807238B1F6
:100A900032B1086848680090E06B40F00100E06304
:100AA00008684A69C0F3400002F0010238B132B16F
:100AB000086848680090E06B40F00400E063086854
:100AC0004A69C0F3800002F0010238B132B108680F
:100AD00048680090E06B40F00200E06308684A69F3
:100AE000C0F3C00002F0010238B132B108684868B2
:100AF0000090E06B40F00800E0630868C968C0F34C
:100B0000401001F0200118B111B1204600F07AF92F
:100B100020680168C068C1F3C01100F0800019B1FD
:100B200010B1204600F0C1F921680868CA68C0F316
:100B3000801002F04002012568B162B1CA68204607
:100B400022F04002CA6094F8391032290CD080F8A3
:100B5000395000F0D3F8E06B002804D084F8395005
:100B60002046FFF787FF38BD222180F83910F0E7D3
:100B70002DE9F047044690F8390099460D460128C2
:100B800001D0122857D125B31AB394F838000128A0
:100B900051D0012684F838600027E76394F83900C3
:100BA000122819D0222084F83900A285E2854FF45A
:100BB0008058E08D4B46401EE085A0684FF0000253
:100BC00040454FF02001204616D100F0A1F9B0B900
:100BD00004E00120BDE8F0873220E4E72069002826
:100BE0002068406803D0C1B225F8011B12E0C0F3B1
:100BF000080125F8021B0DE000F08AF908B1032076
:100C0000E8E7206900282068406801D000F07F00F4
:100C100005F8010BE08D0028CBD194F8390032287B
:100C200005D084F8396084F838700020D2E71220AB
:100C300084F83900F7E70220CCE790F83930012B2F
:100C400001D0122B2BD131B32AB390F83830012BBD
:100C500025D0012380F8383081628285C285002248
:100C6000C26390F83910122917D0222180F8391068
:100C70000168CB6843F48073CB6001684B6943F033
:100C800001034B6180F838200068C16841F0200101
:100C9000C16000207047012070473221E6E7022042
:100CA0007047000030B50068114988420CD1114AE4
:100CB0005088010408D41146440409784FF0000319
:100CC00006D50A2901D0538030BD40F400400DE024
:100CD0000D2909D0C0F30D04074D401C80B22955E1
:100CE0005080C728EFD830BD40F48040508030BDE0
:100CF000001001401C000020240000207047FEE787
:100D0000FEE770470907090E002806DA00F00F0019
:100D100000F1E02080F8141D704700F1E02080F819
:100D2000001470477047704770B51E4C92B0002594
:100D3000266846F080562660246804F0805411949A
:100D4000194C266846F44046266024680DF1240CB0
:100D500004F4404411940124009401940224069464
:100D60008CE80D006605CDE907616846FFF7D4FC05
:100D700000B1FEE7FFF734FB00B1FEE70CA90F203E
:100D800081E831004FF4A0500F904FF48050109044
:100D900005210CA8FFF768FB002800D0FEE712B081
:100DA00070BD00004038024000700040FFF7AEBA4E
:100DB0001048016841F4700101600F48016841F07A
:100DC000010101600C4A00210832116002680B4BDE
:100DD0001A400260031D0A4A1A60026822F4802247
:100DE000026005480C3001600249580680390860ED
:100DF0007047000088ED00E000380240FFFFF6FE7B
:100E00001030002410B590F83910222903D032296F
:100E100001D0022010BD8168B1F5805F11D0016959
:100E2000002901681FD0496801F07F03816A4A1CCC
:100E300082620B70C18D491E0904090CC18518D04E
:100E40002FE00269816A002A0268526805D0D2B296
:100E50000A80816A491C8162ECE7C2F308020A80B9
:100E6000816A891CF7E74A68816A4B1C83620A70B1
:100E7000E0E70168CA6822F02002CA6090F83910E1
:100E8000322910D00168CA6822F48072CA600168F1
:100E90004A6922F001024A61012180F83910FFF706
:100EA00001FF002010BD1221F7E790F83910122938
:100EB00003D0322901D0022070478168B1F5805FEC
:100EC000016A0BD04A1C0262026809785160C18C29
:100ED000491E0904090CC1840ED017E00988026874
:100EE000C1F30801516001690029016A02D0491C5F
:100EF0000162ECE7891CFBE70168CA6822F0800206
:100F0000CA600068C16841F04001C16000207047BC
:100F10002DE9F0471D4690460F460446FFF7F0F9CD
:100F200006465FEA08004FF000094FF0010808D0BC
:100F300030E0681C05D095B1FFF7E2F9801BA842AC
:100F40000DD82068006837EA0000F2D127E0681C5D
:100F500020D025B1FFF7D4F9801BA8421AD9206808
:100F6000C16821F08001C1602068C16821F02001C2
:100F7000C1602068C16821F48071C1602068416946
:100F800021F00101416184F8398084F83890032010
:100F9000BDE8F0872068006837EA0000D7D000205D
:100FA000F6E7000070B500240C4D0D48FFF766FD14
:100FB00002E0641CAC4204D80948FFF75CFD01283C
:100FC000F7D1002402E0641CAC4206D80122054996
:100FD0000348FFF732FE0028F5D170BDFFFF010086
:100FE000EC0000201C0000200C4808B500680068D8
:100FF000C043800611D44FF47A7301226946074832
:10100000FFF7B6FD06490878402806D2034B9DF845
:10101000002040331A54401C087008BD2C010020E9
:1010200020000020FEE7704710B504460420FFF7BB
:1010300001FD0148046010BD18000020FFF76EF9A3
:101040000823022219214FF4B470FFF76DFEB4207B
:10105000FFF7EAFFFEE74FF04070E1EE100A70473D
:10106000000000000102030401020304060708094E
:10107000901000080000002024000000E801000893
:10108000B410000824000020EC070000040200084F
:101090000024F4000000000000000000010203042E
:1010A0000607080900000000000000000000000022
:0410B000000000003C
:04000005080001AD41
:00000001FF
